{
	"contracts/Lesson 4/FundeMe.sol": {
		"FundMe": {
			"abi": [
				{
					"inputs": [
						{
							"internalType": "address",
							"name": "",
							"type": "address"
						}
					],
					"name": "addressToAmountFunded",
					"outputs": [
						{
							"internalType": "uint256",
							"name": "",
							"type": "uint256"
						}
					],
					"stateMutability": "view",
					"type": "function"
				},
				{
					"inputs": [],
					"name": "fund",
					"outputs": [],
					"stateMutability": "payable",
					"type": "function"
				},
				{
					"inputs": [
						{
							"internalType": "uint256",
							"name": "",
							"type": "uint256"
						}
					],
					"name": "funders",
					"outputs": [
						{
							"internalType": "address",
							"name": "",
							"type": "address"
						}
					],
					"stateMutability": "view",
					"type": "function"
				},
				{
					"inputs": [],
					"name": "minimumUsd",
					"outputs": [
						{
							"internalType": "uint256",
							"name": "",
							"type": "uint256"
						}
					],
					"stateMutability": "view",
					"type": "function"
				},
				{
					"inputs": [],
					"name": "withdraw",
					"outputs": [],
					"stateMutability": "nonpayable",
					"type": "function"
				}
			],
			"devdoc": {
				"kind": "dev",
				"methods": {},
				"version": 1
			},
			"evm": {
				"assembly": "    /* \"contracts/Lesson 4/FundeMe.sol\":803:3210  contract FundMe {... */\n  mstore(0x40, 0x80)\n    /* \"contracts/Lesson 4/FundeMe.sol\":1154:1163  50 * 1e18 */\n  0x02b5e3af16b1880000\n    /* \"contracts/Lesson 4/FundeMe.sol\":1129:1163  uint public minimumUsd = 50 * 1e18 */\n  0x00\n  sstore\n    /* \"contracts/Lesson 4/FundeMe.sol\":803:3210  contract FundMe {... */\n  callvalue\n  dup1\n  iszero\n  tag_1\n  jumpi\n  0x00\n  dup1\n  revert\ntag_1:\n  pop\n  dataSize(sub_0)\n  dup1\n  dataOffset(sub_0)\n  0x00\n  codecopy\n  0x00\n  return\nstop\n\nsub_0: assembly {\n        /* \"contracts/Lesson 4/FundeMe.sol\":803:3210  contract FundMe {... */\n      mstore(0x40, 0x80)\n      jumpi(tag_1, lt(calldatasize, 0x04))\n      shr(0xe0, calldataload(0x00))\n      dup1\n      0x098de820\n      eq\n      tag_2\n      jumpi\n      dup1\n      0x3ccfd60b\n      eq\n      tag_3\n      jumpi\n      dup1\n      0x3e47d6f3\n      eq\n      tag_4\n      jumpi\n      dup1\n      0xb60d4288\n      eq\n      tag_5\n      jumpi\n      dup1\n      0xdc0d3dff\n      eq\n      tag_6\n      jumpi\n    tag_1:\n      0x00\n      dup1\n      revert\n        /* \"contracts/Lesson 4/FundeMe.sol\":1129:1163  uint public minimumUsd = 50 * 1e18 */\n    tag_2:\n      callvalue\n      dup1\n      iszero\n      tag_7\n      jumpi\n      0x00\n      dup1\n      revert\n    tag_7:\n      pop\n      tag_8\n      tag_9\n      jump\t// in\n    tag_8:\n      mload(0x40)\n      tag_10\n      swap2\n      swap1\n      tag_11\n      jump\t// in\n    tag_10:\n      mload(0x40)\n      dup1\n      swap2\n      sub\n      swap1\n      return\n        /* \"contracts/Lesson 4/FundeMe.sol\":2979:3207  function withdraw()public{... */\n    tag_3:\n      callvalue\n      dup1\n      iszero\n      tag_12\n      jumpi\n      0x00\n      dup1\n      revert\n    tag_12:\n      pop\n      tag_13\n      tag_14\n      jump\t// in\n    tag_13:\n      stop\n        /* \"contracts/Lesson 4/FundeMe.sol\":1251:1304  mapping(address=>uint256)public addressToAmountFunded */\n    tag_4:\n      callvalue\n      dup1\n      iszero\n      tag_15\n      jumpi\n      0x00\n      dup1\n      revert\n    tag_15:\n      pop\n      tag_16\n      0x04\n      dup1\n      calldatasize\n      sub\n      dup2\n      add\n      swap1\n      tag_17\n      swap2\n      swap1\n      tag_18\n      jump\t// in\n    tag_17:\n      tag_19\n      jump\t// in\n    tag_16:\n      mload(0x40)\n      tag_20\n      swap2\n      swap1\n      tag_11\n      jump\t// in\n    tag_20:\n      mload(0x40)\n      dup1\n      swap2\n      sub\n      swap1\n      return\n        /* \"contracts/Lesson 4/FundeMe.sol\":1370:2965  function fund()public payable{ ... */\n    tag_5:\n      tag_21\n      tag_22\n      jump\t// in\n    tag_21:\n      stop\n        /* \"contracts/Lesson 4/FundeMe.sol\":1172:1197  address [] public funders */\n    tag_6:\n      callvalue\n      dup1\n      iszero\n      tag_23\n      jumpi\n      0x00\n      dup1\n      revert\n    tag_23:\n      pop\n      tag_24\n      0x04\n      dup1\n      calldatasize\n      sub\n      dup2\n      add\n      swap1\n      tag_25\n      swap2\n      swap1\n      tag_26\n      jump\t// in\n    tag_25:\n      tag_27\n      jump\t// in\n    tag_24:\n      mload(0x40)\n      tag_28\n      swap2\n      swap1\n      tag_29\n      jump\t// in\n    tag_28:\n      mload(0x40)\n      dup1\n      swap2\n      sub\n      swap1\n      return\n        /* \"contracts/Lesson 4/FundeMe.sol\":1129:1163  uint public minimumUsd = 50 * 1e18 */\n    tag_9:\n      sload(0x00)\n      dup2\n      jump\t// out\n        /* \"contracts/Lesson 4/FundeMe.sol\":2979:3207  function withdraw()public{... */\n    tag_14:\n        /* \"contracts/Lesson 4/FundeMe.sol\":3019:3038  uint256 funderIndex */\n      0x00\n        /* \"contracts/Lesson 4/FundeMe.sol\":3015:3200  for(uint256 funderIndex = 0; funderIndex < funders.length; funderIndex++){... */\n    tag_31:\n        /* \"contracts/Lesson 4/FundeMe.sol\":3058:3065  funders */\n      0x01\n        /* \"contracts/Lesson 4/FundeMe.sol\":3058:3072  funders.length */\n      dup1\n      sload\n      swap1\n      pop\n        /* \"contracts/Lesson 4/FundeMe.sol\":3044:3055  funderIndex */\n      dup2\n        /* \"contracts/Lesson 4/FundeMe.sol\":3044:3072  funderIndex < funders.length */\n      lt\n        /* \"contracts/Lesson 4/FundeMe.sol\":3015:3200  for(uint256 funderIndex = 0; funderIndex < funders.length; funderIndex++){... */\n      iszero\n      tag_32\n      jumpi\n        /* \"contracts/Lesson 4/FundeMe.sol\":3103:3117  address funder */\n      0x00\n        /* \"contracts/Lesson 4/FundeMe.sol\":3120:3127  funders */\n      0x01\n        /* \"contracts/Lesson 4/FundeMe.sol\":3128:3139  funderIndex */\n      dup3\n        /* \"contracts/Lesson 4/FundeMe.sol\":3120:3140  funders[funderIndex] */\n      dup2\n      sload\n      dup2\n      lt\n      tag_34\n      jumpi\n      tag_35\n      tag_36\n      jump\t// in\n    tag_35:\n    tag_34:\n      swap1\n      0x00\n      mstore\n      keccak256(0x00, 0x20)\n      add\n      0x00\n      swap1\n      sload\n      swap1\n      0x0100\n      exp\n      swap1\n      div\n      0xffffffffffffffffffffffffffffffffffffffff\n      and\n        /* \"contracts/Lesson 4/FundeMe.sol\":3103:3140  address funder = funders[funderIndex] */\n      swap1\n      pop\n        /* \"contracts/Lesson 4/FundeMe.sol\":3187:3188  0 */\n      0x00\n        /* \"contracts/Lesson 4/FundeMe.sol\":3155:3176  addressToAmountFunded */\n      0x02\n        /* \"contracts/Lesson 4/FundeMe.sol\":3155:3184  addressToAmountFunded[funder] */\n      0x00\n        /* \"contracts/Lesson 4/FundeMe.sol\":3177:3183  funder */\n      dup4\n        /* \"contracts/Lesson 4/FundeMe.sol\":3155:3184  addressToAmountFunded[funder] */\n      0xffffffffffffffffffffffffffffffffffffffff\n      and\n      0xffffffffffffffffffffffffffffffffffffffff\n      and\n      dup2\n      mstore\n      0x20\n      add\n      swap1\n      dup2\n      mstore\n      0x20\n      add\n      0x00\n      keccak256\n        /* \"contracts/Lesson 4/FundeMe.sol\":3155:3188  addressToAmountFunded[funder] = 0 */\n      dup2\n      swap1\n      sstore\n      pop\n        /* \"contracts/Lesson 4/FundeMe.sol\":3088:3200  {... */\n      pop\n        /* \"contracts/Lesson 4/FundeMe.sol\":3074:3087  funderIndex++ */\n      dup1\n      dup1\n      tag_38\n      swap1\n      tag_39\n      jump\t// in\n    tag_38:\n      swap2\n      pop\n      pop\n        /* \"contracts/Lesson 4/FundeMe.sol\":3015:3200  for(uint256 funderIndex = 0; funderIndex < funders.length; funderIndex++){... */\n      jump(tag_31)\n    tag_32:\n      pop\n        /* \"contracts/Lesson 4/FundeMe.sol\":2979:3207  function withdraw()public{... */\n      jump\t// out\n        /* \"contracts/Lesson 4/FundeMe.sol\":1251:1304  mapping(address=>uint256)public addressToAmountFunded */\n    tag_19:\n      mstore(0x20, 0x02)\n      dup1\n      0x00\n      mstore\n      keccak256(0x00, 0x40)\n      0x00\n      swap2\n      pop\n      swap1\n      pop\n      sload\n      dup2\n      jump\t// out\n        /* \"contracts/Lesson 4/FundeMe.sol\":1370:2965  function fund()public payable{ ... */\n    tag_22:\n        /* \"contracts/Lesson 4/FundeMe.sol\":2627:2637  minimumUsd */\n      sload(0x00)\n        /* \"contracts/Lesson 4/FundeMe.sol\":2594:2623  msg.value.getConversionRate() */\n      tag_41\n        /* \"contracts/Lesson 4/FundeMe.sol\":2594:2603  msg.value */\n      callvalue\n        /* \"contracts/Lesson 4/FundeMe.sol\":2594:2621  msg.value.getConversionRate */\n      tag_42\n        /* \"contracts/Lesson 4/FundeMe.sol\":2594:2623  msg.value.getConversionRate() */\n      jump\t// in\n    tag_41:\n        /* \"contracts/Lesson 4/FundeMe.sol\":2594:2637  msg.value.getConversionRate() >= minimumUsd */\n      lt\n      iszero\n        /* \"contracts/Lesson 4/FundeMe.sol\":2586:2659  require(msg.value.getConversionRate() >= minimumUsd, \"Didnt send enough\") */\n      tag_43\n      jumpi\n      mload(0x40)\n      0x08c379a000000000000000000000000000000000000000000000000000000000\n      dup2\n      mstore\n      0x04\n      add\n      tag_44\n      swap1\n      tag_45\n      jump\t// in\n    tag_44:\n      mload(0x40)\n      dup1\n      swap2\n      sub\n      swap1\n      revert\n    tag_43:\n        /* \"contracts/Lesson 4/FundeMe.sol\":2736:2743  funders */\n      0x01\n        /* \"contracts/Lesson 4/FundeMe.sol\":2749:2759  msg.sender */\n      caller\n        /* \"contracts/Lesson 4/FundeMe.sol\":2736:2760  funders.push(msg.sender) */\n      swap1\n      dup1\n      0x01\n      dup2\n      sload\n      add\n      dup1\n      dup3\n      sstore\n      dup1\n      swap2\n      pop\n      pop\n      0x01\n      swap1\n      sub\n      swap1\n      0x00\n      mstore\n      keccak256(0x00, 0x20)\n      add\n      0x00\n      swap1\n      swap2\n      swap1\n      swap2\n      swap1\n      swap2\n      0x0100\n      exp\n      dup2\n      sload\n      dup2\n      0xffffffffffffffffffffffffffffffffffffffff\n      mul\n      not\n      and\n      swap1\n      dup4\n      0xffffffffffffffffffffffffffffffffffffffff\n      and\n      mul\n      or\n      swap1\n      sstore\n      pop\n        /* \"contracts/Lesson 4/FundeMe.sol\":2889:2898  msg.value */\n      callvalue\n        /* \"contracts/Lesson 4/FundeMe.sol\":2852:2873  addressToAmountFunded */\n      0x02\n        /* \"contracts/Lesson 4/FundeMe.sol\":2852:2885  addressToAmountFunded[msg.sender] */\n      0x00\n        /* \"contracts/Lesson 4/FundeMe.sol\":2874:2884  msg.sender */\n      caller\n        /* \"contracts/Lesson 4/FundeMe.sol\":2852:2885  addressToAmountFunded[msg.sender] */\n      0xffffffffffffffffffffffffffffffffffffffff\n      and\n      0xffffffffffffffffffffffffffffffffffffffff\n      and\n      dup2\n      mstore\n      0x20\n      add\n      swap1\n      dup2\n      mstore\n      0x20\n      add\n      0x00\n      keccak256\n      0x00\n        /* \"contracts/Lesson 4/FundeMe.sol\":2852:2898  addressToAmountFunded[msg.sender] += msg.value */\n      dup3\n      dup3\n      sload\n      tag_47\n      swap2\n      swap1\n      tag_48\n      jump\t// in\n    tag_47:\n      swap3\n      pop\n      pop\n      dup2\n      swap1\n      sstore\n      pop\n        /* \"contracts/Lesson 4/FundeMe.sol\":1370:2965  function fund()public payable{ ... */\n      jump\t// out\n        /* \"contracts/Lesson 4/FundeMe.sol\":1172:1197  address [] public funders */\n    tag_27:\n      0x01\n      dup2\n      dup2\n      sload\n      dup2\n      lt\n      tag_49\n      jumpi\n      0x00\n      dup1\n      revert\n    tag_49:\n      swap1\n      0x00\n      mstore\n      keccak256(0x00, 0x20)\n      add\n      0x00\n      swap2\n      pop\n      sload\n      swap1\n      0x0100\n      exp\n      swap1\n      div\n      0xffffffffffffffffffffffffffffffffffffffff\n      and\n      dup2\n      jump\t// out\n        /* \"contracts/Lesson 4/PriceConverter.sol\":2139:2402  function getConversionRate(uint256 ethAmount)internal view returns (uint256){... */\n    tag_42:\n        /* \"contracts/Lesson 4/PriceConverter.sol\":2207:2214  uint256 */\n      0x00\n        /* \"contracts/Lesson 4/PriceConverter.sol\":2226:2242  uint256 ethPrice */\n      dup1\n        /* \"contracts/Lesson 4/PriceConverter.sol\":2245:2255  getPrice() */\n      tag_52\n        /* \"contracts/Lesson 4/PriceConverter.sol\":2245:2253  getPrice */\n      tag_53\n        /* \"contracts/Lesson 4/PriceConverter.sol\":2245:2255  getPrice() */\n      jump\t// in\n    tag_52:\n        /* \"contracts/Lesson 4/PriceConverter.sol\":2226:2255  uint256 ethPrice = getPrice() */\n      swap1\n      pop\n        /* \"contracts/Lesson 4/PriceConverter.sol\":2266:2288  uint256 ethAmountInUsd */\n      0x00\n        /* \"contracts/Lesson 4/PriceConverter.sol\":2316:2320  1e18 */\n      0x0de0b6b3a7640000\n        /* \"contracts/Lesson 4/PriceConverter.sol\":2303:2312  ethAmount */\n      dup5\n        /* \"contracts/Lesson 4/PriceConverter.sol\":2292:2300  ethPrice */\n      dup4\n        /* \"contracts/Lesson 4/PriceConverter.sol\":2292:2312  ethPrice * ethAmount */\n      tag_54\n      swap2\n      swap1\n      tag_55\n      jump\t// in\n    tag_54:\n        /* \"contracts/Lesson 4/PriceConverter.sol\":2291:2320  (ethPrice * ethAmount) / 1e18 */\n      tag_56\n      swap2\n      swap1\n      tag_57\n      jump\t// in\n    tag_56:\n        /* \"contracts/Lesson 4/PriceConverter.sol\":2266:2320  uint256 ethAmountInUsd = (ethPrice * ethAmount) / 1e18 */\n      swap1\n      pop\n        /* \"contracts/Lesson 4/PriceConverter.sol\":2380:2394  ethAmountInUsd */\n      dup1\n        /* \"contracts/Lesson 4/PriceConverter.sol\":2373:2394  return ethAmountInUsd */\n      swap3\n      pop\n      pop\n      pop\n        /* \"contracts/Lesson 4/PriceConverter.sol\":2139:2402  function getConversionRate(uint256 ethAmount)internal view returns (uint256){... */\n      swap2\n      swap1\n      pop\n      jump\t// out\n        /* \"contracts/Lesson 4/PriceConverter.sol\":1175:1915  function getPrice()internal view returns(uint256){... */\n    tag_53:\n        /* \"contracts/Lesson 4/PriceConverter.sol\":1216:1223  uint256 */\n      0x00\n        /* \"contracts/Lesson 4/PriceConverter.sol\":1235:1266  AggregatorV3Interface priceFeed */\n      dup1\n        /* \"contracts/Lesson 4/PriceConverter.sol\":1291:1333  0x8A753747A1Fa494EC906cE90E9f37563A8AF630e */\n      0x8a753747a1fa494ec906ce90e9f37563a8af630e\n        /* \"contracts/Lesson 4/PriceConverter.sol\":1235:1334  AggregatorV3Interface priceFeed = AggregatorV3Interface(0x8A753747A1Fa494EC906cE90E9f37563A8AF630e) */\n      swap1\n      pop\n        /* \"contracts/Lesson 4/PriceConverter.sol\":1821:1833  int256 price */\n      0x00\n        /* \"contracts/Lesson 4/PriceConverter.sol\":1840:1849  priceFeed */\n      dup2\n        /* \"contracts/Lesson 4/PriceConverter.sol\":1840:1865  priceFeed.latestRoundData */\n      0xffffffffffffffffffffffffffffffffffffffff\n      and\n      0xfeaf968c\n        /* \"contracts/Lesson 4/PriceConverter.sol\":1840:1867  priceFeed.latestRoundData() */\n      mload(0x40)\n      dup2\n      0xffffffff\n      and\n      0xe0\n      shl\n      dup2\n      mstore\n      0x04\n      add\n      0xa0\n      mload(0x40)\n      dup1\n      dup4\n      sub\n      dup2\n      dup7\n      dup1\n      extcodesize\n      iszero\n      dup1\n      iszero\n      tag_59\n      jumpi\n      0x00\n      dup1\n      revert\n    tag_59:\n      pop\n      gas\n      staticcall\n      iszero\n      dup1\n      iszero\n      tag_61\n      jumpi\n      returndatasize\n      0x00\n      dup1\n      returndatacopy\n      revert(0x00, returndatasize)\n    tag_61:\n      pop\n      pop\n      pop\n      pop\n      mload(0x40)\n      returndatasize\n      not(0x1f)\n      0x1f\n      dup3\n      add\n      and\n      dup3\n      add\n      dup1\n      0x40\n      mstore\n      pop\n      dup2\n      add\n      swap1\n      tag_62\n      swap2\n      swap1\n      tag_63\n      jump\t// in\n    tag_62:\n        /* \"contracts/Lesson 4/PriceConverter.sol\":1819:1867  (,int256 price,,,) = priceFeed.latestRoundData() */\n      pop\n      pop\n      pop\n      swap2\n      pop\n      pop\n        /* \"contracts/Lesson 4/PriceConverter.sol\":1902:1906  1e10 */\n      0x02540be400\n        /* \"contracts/Lesson 4/PriceConverter.sol\":1894:1899  price */\n      dup2\n        /* \"contracts/Lesson 4/PriceConverter.sol\":1894:1906  price * 1e10 */\n      tag_64\n      swap2\n      swap1\n      tag_65\n      jump\t// in\n    tag_64:\n        /* \"contracts/Lesson 4/PriceConverter.sol\":1879:1907  return uint256(price * 1e10) */\n      swap3\n      pop\n      pop\n      pop\n        /* \"contracts/Lesson 4/PriceConverter.sol\":1175:1915  function getPrice()internal view returns(uint256){... */\n      swap1\n      jump\t// out\n        /* \"#utility.yul\":7:84   */\n    tag_66:\n        /* \"#utility.yul\":44:51   */\n      0x00\n        /* \"#utility.yul\":73:78   */\n      dup2\n        /* \"#utility.yul\":62:78   */\n      swap1\n      pop\n        /* \"#utility.yul\":7:84   */\n      swap2\n      swap1\n      pop\n      jump\t// out\n        /* \"#utility.yul\":90:208   */\n    tag_67:\n        /* \"#utility.yul\":177:201   */\n      tag_93\n        /* \"#utility.yul\":195:200   */\n      dup2\n        /* \"#utility.yul\":177:201   */\n      tag_66\n      jump\t// in\n    tag_93:\n        /* \"#utility.yul\":172:175   */\n      dup3\n        /* \"#utility.yul\":165:202   */\n      mstore\n        /* \"#utility.yul\":90:208   */\n      pop\n      pop\n      jump\t// out\n        /* \"#utility.yul\":214:436   */\n    tag_11:\n        /* \"#utility.yul\":307:311   */\n      0x00\n        /* \"#utility.yul\":345:347   */\n      0x20\n        /* \"#utility.yul\":334:343   */\n      dup3\n        /* \"#utility.yul\":330:348   */\n      add\n        /* \"#utility.yul\":322:348   */\n      swap1\n      pop\n        /* \"#utility.yul\":358:429   */\n      tag_95\n        /* \"#utility.yul\":426:427   */\n      0x00\n        /* \"#utility.yul\":415:424   */\n      dup4\n        /* \"#utility.yul\":411:428   */\n      add\n        /* \"#utility.yul\":402:408   */\n      dup5\n        /* \"#utility.yul\":358:429   */\n      tag_67\n      jump\t// in\n    tag_95:\n        /* \"#utility.yul\":214:436   */\n      swap3\n      swap2\n      pop\n      pop\n      jump\t// out\n        /* \"#utility.yul\":523:640   */\n    tag_69:\n        /* \"#utility.yul\":632:633   */\n      0x00\n        /* \"#utility.yul\":629:630   */\n      dup1\n        /* \"#utility.yul\":622:634   */\n      revert\n        /* \"#utility.yul\":769:895   */\n    tag_71:\n        /* \"#utility.yul\":806:813   */\n      0x00\n        /* \"#utility.yul\":846:888   */\n      0xffffffffffffffffffffffffffffffffffffffff\n        /* \"#utility.yul\":839:844   */\n      dup3\n        /* \"#utility.yul\":835:889   */\n      and\n        /* \"#utility.yul\":824:889   */\n      swap1\n      pop\n        /* \"#utility.yul\":769:895   */\n      swap2\n      swap1\n      pop\n      jump\t// out\n        /* \"#utility.yul\":901:997   */\n    tag_72:\n        /* \"#utility.yul\":938:945   */\n      0x00\n        /* \"#utility.yul\":967:991   */\n      tag_101\n        /* \"#utility.yul\":985:990   */\n      dup3\n        /* \"#utility.yul\":967:991   */\n      tag_71\n      jump\t// in\n    tag_101:\n        /* \"#utility.yul\":956:991   */\n      swap1\n      pop\n        /* \"#utility.yul\":901:997   */\n      swap2\n      swap1\n      pop\n      jump\t// out\n        /* \"#utility.yul\":1003:1125   */\n    tag_73:\n        /* \"#utility.yul\":1076:1100   */\n      tag_103\n        /* \"#utility.yul\":1094:1099   */\n      dup2\n        /* \"#utility.yul\":1076:1100   */\n      tag_72\n      jump\t// in\n    tag_103:\n        /* \"#utility.yul\":1069:1074   */\n      dup2\n        /* \"#utility.yul\":1066:1101   */\n      eq\n        /* \"#utility.yul\":1056:1119   */\n      tag_104\n      jumpi\n        /* \"#utility.yul\":1115:1116   */\n      0x00\n        /* \"#utility.yul\":1112:1113   */\n      dup1\n        /* \"#utility.yul\":1105:1117   */\n      revert\n        /* \"#utility.yul\":1056:1119   */\n    tag_104:\n        /* \"#utility.yul\":1003:1125   */\n      pop\n      jump\t// out\n        /* \"#utility.yul\":1131:1270   */\n    tag_74:\n        /* \"#utility.yul\":1177:1182   */\n      0x00\n        /* \"#utility.yul\":1215:1221   */\n      dup2\n        /* \"#utility.yul\":1202:1222   */\n      calldataload\n        /* \"#utility.yul\":1193:1222   */\n      swap1\n      pop\n        /* \"#utility.yul\":1231:1264   */\n      tag_106\n        /* \"#utility.yul\":1258:1263   */\n      dup2\n        /* \"#utility.yul\":1231:1264   */\n      tag_73\n      jump\t// in\n    tag_106:\n        /* \"#utility.yul\":1131:1270   */\n      swap3\n      swap2\n      pop\n      pop\n      jump\t// out\n        /* \"#utility.yul\":1276:1605   */\n    tag_18:\n        /* \"#utility.yul\":1335:1341   */\n      0x00\n        /* \"#utility.yul\":1384:1386   */\n      0x20\n        /* \"#utility.yul\":1372:1381   */\n      dup3\n        /* \"#utility.yul\":1363:1370   */\n      dup5\n        /* \"#utility.yul\":1359:1382   */\n      sub\n        /* \"#utility.yul\":1355:1387   */\n      slt\n        /* \"#utility.yul\":1352:1471   */\n      iszero\n      tag_108\n      jumpi\n        /* \"#utility.yul\":1390:1469   */\n      tag_109\n      tag_69\n      jump\t// in\n    tag_109:\n        /* \"#utility.yul\":1352:1471   */\n    tag_108:\n        /* \"#utility.yul\":1510:1511   */\n      0x00\n        /* \"#utility.yul\":1535:1588   */\n      tag_110\n        /* \"#utility.yul\":1580:1587   */\n      dup5\n        /* \"#utility.yul\":1571:1577   */\n      dup3\n        /* \"#utility.yul\":1560:1569   */\n      dup6\n        /* \"#utility.yul\":1556:1578   */\n      add\n        /* \"#utility.yul\":1535:1588   */\n      tag_74\n      jump\t// in\n    tag_110:\n        /* \"#utility.yul\":1525:1588   */\n      swap2\n      pop\n        /* \"#utility.yul\":1481:1598   */\n      pop\n        /* \"#utility.yul\":1276:1605   */\n      swap3\n      swap2\n      pop\n      pop\n      jump\t// out\n        /* \"#utility.yul\":1611:1733   */\n    tag_75:\n        /* \"#utility.yul\":1684:1708   */\n      tag_112\n        /* \"#utility.yul\":1702:1707   */\n      dup2\n        /* \"#utility.yul\":1684:1708   */\n      tag_66\n      jump\t// in\n    tag_112:\n        /* \"#utility.yul\":1677:1682   */\n      dup2\n        /* \"#utility.yul\":1674:1709   */\n      eq\n        /* \"#utility.yul\":1664:1727   */\n      tag_113\n      jumpi\n        /* \"#utility.yul\":1723:1724   */\n      0x00\n        /* \"#utility.yul\":1720:1721   */\n      dup1\n        /* \"#utility.yul\":1713:1725   */\n      revert\n        /* \"#utility.yul\":1664:1727   */\n    tag_113:\n        /* \"#utility.yul\":1611:1733   */\n      pop\n      jump\t// out\n        /* \"#utility.yul\":1739:1878   */\n    tag_76:\n        /* \"#utility.yul\":1785:1790   */\n      0x00\n        /* \"#utility.yul\":1823:1829   */\n      dup2\n        /* \"#utility.yul\":1810:1830   */\n      calldataload\n        /* \"#utility.yul\":1801:1830   */\n      swap1\n      pop\n        /* \"#utility.yul\":1839:1872   */\n      tag_115\n        /* \"#utility.yul\":1866:1871   */\n      dup2\n        /* \"#utility.yul\":1839:1872   */\n      tag_75\n      jump\t// in\n    tag_115:\n        /* \"#utility.yul\":1739:1878   */\n      swap3\n      swap2\n      pop\n      pop\n      jump\t// out\n        /* \"#utility.yul\":1884:2213   */\n    tag_26:\n        /* \"#utility.yul\":1943:1949   */\n      0x00\n        /* \"#utility.yul\":1992:1994   */\n      0x20\n        /* \"#utility.yul\":1980:1989   */\n      dup3\n        /* \"#utility.yul\":1971:1978   */\n      dup5\n        /* \"#utility.yul\":1967:1990   */\n      sub\n        /* \"#utility.yul\":1963:1995   */\n      slt\n        /* \"#utility.yul\":1960:2079   */\n      iszero\n      tag_117\n      jumpi\n        /* \"#utility.yul\":1998:2077   */\n      tag_118\n      tag_69\n      jump\t// in\n    tag_118:\n        /* \"#utility.yul\":1960:2079   */\n    tag_117:\n        /* \"#utility.yul\":2118:2119   */\n      0x00\n        /* \"#utility.yul\":2143:2196   */\n      tag_119\n        /* \"#utility.yul\":2188:2195   */\n      dup5\n        /* \"#utility.yul\":2179:2185   */\n      dup3\n        /* \"#utility.yul\":2168:2177   */\n      dup6\n        /* \"#utility.yul\":2164:2186   */\n      add\n        /* \"#utility.yul\":2143:2196   */\n      tag_76\n      jump\t// in\n    tag_119:\n        /* \"#utility.yul\":2133:2196   */\n      swap2\n      pop\n        /* \"#utility.yul\":2089:2206   */\n      pop\n        /* \"#utility.yul\":1884:2213   */\n      swap3\n      swap2\n      pop\n      pop\n      jump\t// out\n        /* \"#utility.yul\":2219:2337   */\n    tag_77:\n        /* \"#utility.yul\":2306:2330   */\n      tag_121\n        /* \"#utility.yul\":2324:2329   */\n      dup2\n        /* \"#utility.yul\":2306:2330   */\n      tag_72\n      jump\t// in\n    tag_121:\n        /* \"#utility.yul\":2301:2304   */\n      dup3\n        /* \"#utility.yul\":2294:2331   */\n      mstore\n        /* \"#utility.yul\":2219:2337   */\n      pop\n      pop\n      jump\t// out\n        /* \"#utility.yul\":2343:2565   */\n    tag_29:\n        /* \"#utility.yul\":2436:2440   */\n      0x00\n        /* \"#utility.yul\":2474:2476   */\n      0x20\n        /* \"#utility.yul\":2463:2472   */\n      dup3\n        /* \"#utility.yul\":2459:2477   */\n      add\n        /* \"#utility.yul\":2451:2477   */\n      swap1\n      pop\n        /* \"#utility.yul\":2487:2558   */\n      tag_123\n        /* \"#utility.yul\":2555:2556   */\n      0x00\n        /* \"#utility.yul\":2544:2553   */\n      dup4\n        /* \"#utility.yul\":2540:2557   */\n      add\n        /* \"#utility.yul\":2531:2537   */\n      dup5\n        /* \"#utility.yul\":2487:2558   */\n      tag_77\n      jump\t// in\n    tag_123:\n        /* \"#utility.yul\":2343:2565   */\n      swap3\n      swap2\n      pop\n      pop\n      jump\t// out\n        /* \"#utility.yul\":2571:2751   */\n    tag_36:\n        /* \"#utility.yul\":2619:2696   */\n      0x4e487b7100000000000000000000000000000000000000000000000000000000\n        /* \"#utility.yul\":2616:2617   */\n      0x00\n        /* \"#utility.yul\":2609:2697   */\n      mstore\n        /* \"#utility.yul\":2716:2720   */\n      0x32\n        /* \"#utility.yul\":2713:2714   */\n      0x04\n        /* \"#utility.yul\":2706:2721   */\n      mstore\n        /* \"#utility.yul\":2740:2744   */\n      0x24\n        /* \"#utility.yul\":2737:2738   */\n      0x00\n        /* \"#utility.yul\":2730:2745   */\n      revert\n        /* \"#utility.yul\":2757:2937   */\n    tag_78:\n        /* \"#utility.yul\":2805:2882   */\n      0x4e487b7100000000000000000000000000000000000000000000000000000000\n        /* \"#utility.yul\":2802:2803   */\n      0x00\n        /* \"#utility.yul\":2795:2883   */\n      mstore\n        /* \"#utility.yul\":2902:2906   */\n      0x11\n        /* \"#utility.yul\":2899:2900   */\n      0x04\n        /* \"#utility.yul\":2892:2907   */\n      mstore\n        /* \"#utility.yul\":2926:2930   */\n      0x24\n        /* \"#utility.yul\":2923:2924   */\n      0x00\n        /* \"#utility.yul\":2916:2931   */\n      revert\n        /* \"#utility.yul\":2943:3176   */\n    tag_39:\n        /* \"#utility.yul\":2982:2985   */\n      0x00\n        /* \"#utility.yul\":3005:3029   */\n      tag_127\n        /* \"#utility.yul\":3023:3028   */\n      dup3\n        /* \"#utility.yul\":3005:3029   */\n      tag_66\n      jump\t// in\n    tag_127:\n        /* \"#utility.yul\":2996:3029   */\n      swap2\n      pop\n        /* \"#utility.yul\":3051:3117   */\n      0xffffffffffffffffffffffffffffffffffffffffffffffffffffffffffffffff\n        /* \"#utility.yul\":3044:3049   */\n      dup3\n        /* \"#utility.yul\":3041:3118   */\n      eq\n        /* \"#utility.yul\":3038:3141   */\n      iszero\n      tag_128\n      jumpi\n        /* \"#utility.yul\":3121:3139   */\n      tag_129\n      tag_78\n      jump\t// in\n    tag_129:\n        /* \"#utility.yul\":3038:3141   */\n    tag_128:\n        /* \"#utility.yul\":3168:3169   */\n      0x01\n        /* \"#utility.yul\":3161:3166   */\n      dup3\n        /* \"#utility.yul\":3157:3170   */\n      add\n        /* \"#utility.yul\":3150:3170   */\n      swap1\n      pop\n        /* \"#utility.yul\":2943:3176   */\n      swap2\n      swap1\n      pop\n      jump\t// out\n        /* \"#utility.yul\":3182:3351   */\n    tag_79:\n        /* \"#utility.yul\":3266:3277   */\n      0x00\n        /* \"#utility.yul\":3300:3306   */\n      dup3\n        /* \"#utility.yul\":3295:3298   */\n      dup3\n        /* \"#utility.yul\":3288:3307   */\n      mstore\n        /* \"#utility.yul\":3340:3344   */\n      0x20\n        /* \"#utility.yul\":3335:3338   */\n      dup3\n        /* \"#utility.yul\":3331:3345   */\n      add\n        /* \"#utility.yul\":3316:3345   */\n      swap1\n      pop\n        /* \"#utility.yul\":3182:3351   */\n      swap3\n      swap2\n      pop\n      pop\n      jump\t// out\n        /* \"#utility.yul\":3357:3524   */\n    tag_80:\n        /* \"#utility.yul\":3497:3516   */\n      0x4469646e742073656e6420656e6f756768000000000000000000000000000000\n        /* \"#utility.yul\":3493:3494   */\n      0x00\n        /* \"#utility.yul\":3485:3491   */\n      dup3\n        /* \"#utility.yul\":3481:3495   */\n      add\n        /* \"#utility.yul\":3474:3517   */\n      mstore\n        /* \"#utility.yul\":3357:3524   */\n      pop\n      jump\t// out\n        /* \"#utility.yul\":3530:3896   */\n    tag_81:\n        /* \"#utility.yul\":3672:3675   */\n      0x00\n        /* \"#utility.yul\":3693:3760   */\n      tag_133\n        /* \"#utility.yul\":3757:3759   */\n      0x11\n        /* \"#utility.yul\":3752:3755   */\n      dup4\n        /* \"#utility.yul\":3693:3760   */\n      tag_79\n      jump\t// in\n    tag_133:\n        /* \"#utility.yul\":3686:3760   */\n      swap2\n      pop\n        /* \"#utility.yul\":3769:3862   */\n      tag_134\n        /* \"#utility.yul\":3858:3861   */\n      dup3\n        /* \"#utility.yul\":3769:3862   */\n      tag_80\n      jump\t// in\n    tag_134:\n        /* \"#utility.yul\":3887:3889   */\n      0x20\n        /* \"#utility.yul\":3882:3885   */\n      dup3\n        /* \"#utility.yul\":3878:3890   */\n      add\n        /* \"#utility.yul\":3871:3890   */\n      swap1\n      pop\n        /* \"#utility.yul\":3530:3896   */\n      swap2\n      swap1\n      pop\n      jump\t// out\n        /* \"#utility.yul\":3902:4321   */\n    tag_45:\n        /* \"#utility.yul\":4068:4072   */\n      0x00\n        /* \"#utility.yul\":4106:4108   */\n      0x20\n        /* \"#utility.yul\":4095:4104   */\n      dup3\n        /* \"#utility.yul\":4091:4109   */\n      add\n        /* \"#utility.yul\":4083:4109   */\n      swap1\n      pop\n        /* \"#utility.yul\":4155:4164   */\n      dup2\n        /* \"#utility.yul\":4149:4153   */\n      dup2\n        /* \"#utility.yul\":4145:4165   */\n      sub\n        /* \"#utility.yul\":4141:4142   */\n      0x00\n        /* \"#utility.yul\":4130:4139   */\n      dup4\n        /* \"#utility.yul\":4126:4143   */\n      add\n        /* \"#utility.yul\":4119:4166   */\n      mstore\n        /* \"#utility.yul\":4183:4314   */\n      tag_136\n        /* \"#utility.yul\":4309:4313   */\n      dup2\n        /* \"#utility.yul\":4183:4314   */\n      tag_81\n      jump\t// in\n    tag_136:\n        /* \"#utility.yul\":4175:4314   */\n      swap1\n      pop\n        /* \"#utility.yul\":3902:4321   */\n      swap2\n      swap1\n      pop\n      jump\t// out\n        /* \"#utility.yul\":4327:4632   */\n    tag_48:\n        /* \"#utility.yul\":4367:4370   */\n      0x00\n        /* \"#utility.yul\":4386:4406   */\n      tag_138\n        /* \"#utility.yul\":4404:4405   */\n      dup3\n        /* \"#utility.yul\":4386:4406   */\n      tag_66\n      jump\t// in\n    tag_138:\n        /* \"#utility.yul\":4381:4406   */\n      swap2\n      pop\n        /* \"#utility.yul\":4420:4440   */\n      tag_139\n        /* \"#utility.yul\":4438:4439   */\n      dup4\n        /* \"#utility.yul\":4420:4440   */\n      tag_66\n      jump\t// in\n    tag_139:\n        /* \"#utility.yul\":4415:4440   */\n      swap3\n      pop\n        /* \"#utility.yul\":4574:4575   */\n      dup3\n        /* \"#utility.yul\":4506:4572   */\n      0xffffffffffffffffffffffffffffffffffffffffffffffffffffffffffffffff\n        /* \"#utility.yul\":4502:4576   */\n      sub\n        /* \"#utility.yul\":4499:4500   */\n      dup3\n        /* \"#utility.yul\":4496:4577   */\n      gt\n        /* \"#utility.yul\":4493:4600   */\n      iszero\n      tag_140\n      jumpi\n        /* \"#utility.yul\":4580:4598   */\n      tag_141\n      tag_78\n      jump\t// in\n    tag_141:\n        /* \"#utility.yul\":4493:4600   */\n    tag_140:\n        /* \"#utility.yul\":4624:4625   */\n      dup3\n        /* \"#utility.yul\":4621:4622   */\n      dup3\n        /* \"#utility.yul\":4617:4626   */\n      add\n        /* \"#utility.yul\":4610:4626   */\n      swap1\n      pop\n        /* \"#utility.yul\":4327:4632   */\n      swap3\n      swap2\n      pop\n      pop\n      jump\t// out\n        /* \"#utility.yul\":4638:4986   */\n    tag_55:\n        /* \"#utility.yul\":4678:4685   */\n      0x00\n        /* \"#utility.yul\":4701:4721   */\n      tag_143\n        /* \"#utility.yul\":4719:4720   */\n      dup3\n        /* \"#utility.yul\":4701:4721   */\n      tag_66\n      jump\t// in\n    tag_143:\n        /* \"#utility.yul\":4696:4721   */\n      swap2\n      pop\n        /* \"#utility.yul\":4735:4755   */\n      tag_144\n        /* \"#utility.yul\":4753:4754   */\n      dup4\n        /* \"#utility.yul\":4735:4755   */\n      tag_66\n      jump\t// in\n    tag_144:\n        /* \"#utility.yul\":4730:4755   */\n      swap3\n      pop\n        /* \"#utility.yul\":4923:4924   */\n      dup2\n        /* \"#utility.yul\":4855:4921   */\n      0xffffffffffffffffffffffffffffffffffffffffffffffffffffffffffffffff\n        /* \"#utility.yul\":4851:4925   */\n      div\n        /* \"#utility.yul\":4848:4849   */\n      dup4\n        /* \"#utility.yul\":4845:4926   */\n      gt\n        /* \"#utility.yul\":4840:4841   */\n      dup3\n        /* \"#utility.yul\":4833:4842   */\n      iszero\n        /* \"#utility.yul\":4826:4843   */\n      iszero\n        /* \"#utility.yul\":4822:4927   */\n      and\n        /* \"#utility.yul\":4819:4950   */\n      iszero\n      tag_145\n      jumpi\n        /* \"#utility.yul\":4930:4948   */\n      tag_146\n      tag_78\n      jump\t// in\n    tag_146:\n        /* \"#utility.yul\":4819:4950   */\n    tag_145:\n        /* \"#utility.yul\":4978:4979   */\n      dup3\n        /* \"#utility.yul\":4975:4976   */\n      dup3\n        /* \"#utility.yul\":4971:4980   */\n      mul\n        /* \"#utility.yul\":4960:4980   */\n      swap1\n      pop\n        /* \"#utility.yul\":4638:4986   */\n      swap3\n      swap2\n      pop\n      pop\n      jump\t// out\n        /* \"#utility.yul\":4992:5172   */\n    tag_82:\n        /* \"#utility.yul\":5040:5117   */\n      0x4e487b7100000000000000000000000000000000000000000000000000000000\n        /* \"#utility.yul\":5037:5038   */\n      0x00\n        /* \"#utility.yul\":5030:5118   */\n      mstore\n        /* \"#utility.yul\":5137:5141   */\n      0x12\n        /* \"#utility.yul\":5134:5135   */\n      0x04\n        /* \"#utility.yul\":5127:5142   */\n      mstore\n        /* \"#utility.yul\":5161:5165   */\n      0x24\n        /* \"#utility.yul\":5158:5159   */\n      0x00\n        /* \"#utility.yul\":5151:5166   */\n      revert\n        /* \"#utility.yul\":5178:5363   */\n    tag_57:\n        /* \"#utility.yul\":5218:5219   */\n      0x00\n        /* \"#utility.yul\":5235:5255   */\n      tag_149\n        /* \"#utility.yul\":5253:5254   */\n      dup3\n        /* \"#utility.yul\":5235:5255   */\n      tag_66\n      jump\t// in\n    tag_149:\n        /* \"#utility.yul\":5230:5255   */\n      swap2\n      pop\n        /* \"#utility.yul\":5269:5289   */\n      tag_150\n        /* \"#utility.yul\":5287:5288   */\n      dup4\n        /* \"#utility.yul\":5269:5289   */\n      tag_66\n      jump\t// in\n    tag_150:\n        /* \"#utility.yul\":5264:5289   */\n      swap3\n      pop\n        /* \"#utility.yul\":5308:5309   */\n      dup3\n        /* \"#utility.yul\":5298:5333   */\n      tag_151\n      jumpi\n        /* \"#utility.yul\":5313:5331   */\n      tag_152\n      tag_82\n      jump\t// in\n    tag_152:\n        /* \"#utility.yul\":5298:5333   */\n    tag_151:\n        /* \"#utility.yul\":5355:5356   */\n      dup3\n        /* \"#utility.yul\":5352:5353   */\n      dup3\n        /* \"#utility.yul\":5348:5357   */\n      div\n        /* \"#utility.yul\":5343:5357   */\n      swap1\n      pop\n        /* \"#utility.yul\":5178:5363   */\n      swap3\n      swap2\n      pop\n      pop\n      jump\t// out\n        /* \"#utility.yul\":5369:5474   */\n    tag_83:\n        /* \"#utility.yul\":5405:5412   */\n      0x00\n        /* \"#utility.yul\":5445:5467   */\n      0xffffffffffffffffffff\n        /* \"#utility.yul\":5438:5443   */\n      dup3\n        /* \"#utility.yul\":5434:5468   */\n      and\n        /* \"#utility.yul\":5423:5468   */\n      swap1\n      pop\n        /* \"#utility.yul\":5369:5474   */\n      swap2\n      swap1\n      pop\n      jump\t// out\n        /* \"#utility.yul\":5480:5600   */\n    tag_84:\n        /* \"#utility.yul\":5552:5575   */\n      tag_155\n        /* \"#utility.yul\":5569:5574   */\n      dup2\n        /* \"#utility.yul\":5552:5575   */\n      tag_83\n      jump\t// in\n    tag_155:\n        /* \"#utility.yul\":5545:5550   */\n      dup2\n        /* \"#utility.yul\":5542:5576   */\n      eq\n        /* \"#utility.yul\":5532:5594   */\n      tag_156\n      jumpi\n        /* \"#utility.yul\":5590:5591   */\n      0x00\n        /* \"#utility.yul\":5587:5588   */\n      dup1\n        /* \"#utility.yul\":5580:5592   */\n      revert\n        /* \"#utility.yul\":5532:5594   */\n    tag_156:\n        /* \"#utility.yul\":5480:5600   */\n      pop\n      jump\t// out\n        /* \"#utility.yul\":5606:5747   */\n    tag_85:\n        /* \"#utility.yul\":5662:5667   */\n      0x00\n        /* \"#utility.yul\":5693:5699   */\n      dup2\n        /* \"#utility.yul\":5687:5700   */\n      mload\n        /* \"#utility.yul\":5678:5700   */\n      swap1\n      pop\n        /* \"#utility.yul\":5709:5741   */\n      tag_158\n        /* \"#utility.yul\":5735:5740   */\n      dup2\n        /* \"#utility.yul\":5709:5741   */\n      tag_84\n      jump\t// in\n    tag_158:\n        /* \"#utility.yul\":5606:5747   */\n      swap3\n      swap2\n      pop\n      pop\n      jump\t// out\n        /* \"#utility.yul\":5753:5829   */\n    tag_86:\n        /* \"#utility.yul\":5789:5796   */\n      0x00\n        /* \"#utility.yul\":5818:5823   */\n      dup2\n        /* \"#utility.yul\":5807:5823   */\n      swap1\n      pop\n        /* \"#utility.yul\":5753:5829   */\n      swap2\n      swap1\n      pop\n      jump\t// out\n        /* \"#utility.yul\":5835:5955   */\n    tag_87:\n        /* \"#utility.yul\":5907:5930   */\n      tag_161\n        /* \"#utility.yul\":5924:5929   */\n      dup2\n        /* \"#utility.yul\":5907:5930   */\n      tag_86\n      jump\t// in\n    tag_161:\n        /* \"#utility.yul\":5900:5905   */\n      dup2\n        /* \"#utility.yul\":5897:5931   */\n      eq\n        /* \"#utility.yul\":5887:5949   */\n      tag_162\n      jumpi\n        /* \"#utility.yul\":5945:5946   */\n      0x00\n        /* \"#utility.yul\":5942:5943   */\n      dup1\n        /* \"#utility.yul\":5935:5947   */\n      revert\n        /* \"#utility.yul\":5887:5949   */\n    tag_162:\n        /* \"#utility.yul\":5835:5955   */\n      pop\n      jump\t// out\n        /* \"#utility.yul\":5961:6102   */\n    tag_88:\n        /* \"#utility.yul\":6017:6022   */\n      0x00\n        /* \"#utility.yul\":6048:6054   */\n      dup2\n        /* \"#utility.yul\":6042:6055   */\n      mload\n        /* \"#utility.yul\":6033:6055   */\n      swap1\n      pop\n        /* \"#utility.yul\":6064:6096   */\n      tag_164\n        /* \"#utility.yul\":6090:6095   */\n      dup2\n        /* \"#utility.yul\":6064:6096   */\n      tag_87\n      jump\t// in\n    tag_164:\n        /* \"#utility.yul\":5961:6102   */\n      swap3\n      swap2\n      pop\n      pop\n      jump\t// out\n        /* \"#utility.yul\":6108:6251   */\n    tag_89:\n        /* \"#utility.yul\":6165:6170   */\n      0x00\n        /* \"#utility.yul\":6196:6202   */\n      dup2\n        /* \"#utility.yul\":6190:6203   */\n      mload\n        /* \"#utility.yul\":6181:6203   */\n      swap1\n      pop\n        /* \"#utility.yul\":6212:6245   */\n      tag_166\n        /* \"#utility.yul\":6239:6244   */\n      dup2\n        /* \"#utility.yul\":6212:6245   */\n      tag_75\n      jump\t// in\n    tag_166:\n        /* \"#utility.yul\":6108:6251   */\n      swap3\n      swap2\n      pop\n      pop\n      jump\t// out\n        /* \"#utility.yul\":6257:7228   */\n    tag_63:\n        /* \"#utility.yul\":6360:6366   */\n      0x00\n        /* \"#utility.yul\":6368:6374   */\n      dup1\n        /* \"#utility.yul\":6376:6382   */\n      0x00\n        /* \"#utility.yul\":6384:6390   */\n      dup1\n        /* \"#utility.yul\":6392:6398   */\n      0x00\n        /* \"#utility.yul\":6441:6444   */\n      0xa0\n        /* \"#utility.yul\":6429:6438   */\n      dup7\n        /* \"#utility.yul\":6420:6427   */\n      dup9\n        /* \"#utility.yul\":6416:6439   */\n      sub\n        /* \"#utility.yul\":6412:6445   */\n      slt\n        /* \"#utility.yul\":6409:6529   */\n      iszero\n      tag_168\n      jumpi\n        /* \"#utility.yul\":6448:6527   */\n      tag_169\n      tag_69\n      jump\t// in\n    tag_169:\n        /* \"#utility.yul\":6409:6529   */\n    tag_168:\n        /* \"#utility.yul\":6568:6569   */\n      0x00\n        /* \"#utility.yul\":6593:6656   */\n      tag_170\n        /* \"#utility.yul\":6648:6655   */\n      dup9\n        /* \"#utility.yul\":6639:6645   */\n      dup3\n        /* \"#utility.yul\":6628:6637   */\n      dup10\n        /* \"#utility.yul\":6624:6646   */\n      add\n        /* \"#utility.yul\":6593:6656   */\n      tag_85\n      jump\t// in\n    tag_170:\n        /* \"#utility.yul\":6583:6656   */\n      swap6\n      pop\n        /* \"#utility.yul\":6539:6666   */\n      pop\n        /* \"#utility.yul\":6705:6707   */\n      0x20\n        /* \"#utility.yul\":6731:6794   */\n      tag_171\n        /* \"#utility.yul\":6786:6793   */\n      dup9\n        /* \"#utility.yul\":6777:6783   */\n      dup3\n        /* \"#utility.yul\":6766:6775   */\n      dup10\n        /* \"#utility.yul\":6762:6784   */\n      add\n        /* \"#utility.yul\":6731:6794   */\n      tag_88\n      jump\t// in\n    tag_171:\n        /* \"#utility.yul\":6721:6794   */\n      swap5\n      pop\n        /* \"#utility.yul\":6676:6804   */\n      pop\n        /* \"#utility.yul\":6843:6845   */\n      0x40\n        /* \"#utility.yul\":6869:6933   */\n      tag_172\n        /* \"#utility.yul\":6925:6932   */\n      dup9\n        /* \"#utility.yul\":6916:6922   */\n      dup3\n        /* \"#utility.yul\":6905:6914   */\n      dup10\n        /* \"#utility.yul\":6901:6923   */\n      add\n        /* \"#utility.yul\":6869:6933   */\n      tag_89\n      jump\t// in\n    tag_172:\n        /* \"#utility.yul\":6859:6933   */\n      swap4\n      pop\n        /* \"#utility.yul\":6814:6943   */\n      pop\n        /* \"#utility.yul\":6982:6984   */\n      0x60\n        /* \"#utility.yul\":7008:7072   */\n      tag_173\n        /* \"#utility.yul\":7064:7071   */\n      dup9\n        /* \"#utility.yul\":7055:7061   */\n      dup3\n        /* \"#utility.yul\":7044:7053   */\n      dup10\n        /* \"#utility.yul\":7040:7062   */\n      add\n        /* \"#utility.yul\":7008:7072   */\n      tag_89\n      jump\t// in\n    tag_173:\n        /* \"#utility.yul\":6998:7072   */\n      swap3\n      pop\n        /* \"#utility.yul\":6953:7082   */\n      pop\n        /* \"#utility.yul\":7121:7124   */\n      0x80\n        /* \"#utility.yul\":7148:7211   */\n      tag_174\n        /* \"#utility.yul\":7203:7210   */\n      dup9\n        /* \"#utility.yul\":7194:7200   */\n      dup3\n        /* \"#utility.yul\":7183:7192   */\n      dup10\n        /* \"#utility.yul\":7179:7201   */\n      add\n        /* \"#utility.yul\":7148:7211   */\n      tag_85\n      jump\t// in\n    tag_174:\n        /* \"#utility.yul\":7138:7211   */\n      swap2\n      pop\n        /* \"#utility.yul\":7092:7221   */\n      pop\n        /* \"#utility.yul\":6257:7228   */\n      swap3\n      swap6\n      pop\n      swap3\n      swap6\n      swap1\n      swap4\n      pop\n      jump\t// out\n        /* \"#utility.yul\":7234:8225   */\n    tag_65:\n        /* \"#utility.yul\":7273:7280   */\n      0x00\n        /* \"#utility.yul\":7296:7315   */\n      tag_176\n        /* \"#utility.yul\":7313:7314   */\n      dup3\n        /* \"#utility.yul\":7296:7315   */\n      tag_86\n      jump\t// in\n    tag_176:\n        /* \"#utility.yul\":7291:7315   */\n      swap2\n      pop\n        /* \"#utility.yul\":7329:7348   */\n      tag_177\n        /* \"#utility.yul\":7346:7347   */\n      dup4\n        /* \"#utility.yul\":7329:7348   */\n      tag_86\n      jump\t// in\n    tag_177:\n        /* \"#utility.yul\":7324:7348   */\n      swap3\n      pop\n        /* \"#utility.yul\":7530:7531   */\n      dup3\n        /* \"#utility.yul\":7462:7528   */\n      0x7fffffffffffffffffffffffffffffffffffffffffffffffffffffffffffffff\n        /* \"#utility.yul\":7458:7532   */\n      div\n        /* \"#utility.yul\":7455:7456   */\n      dup3\n        /* \"#utility.yul\":7452:7533   */\n      gt\n        /* \"#utility.yul\":7447:7448   */\n      0x00\n        /* \"#utility.yul\":7444:7445   */\n      dup5\n        /* \"#utility.yul\":7440:7449   */\n      sgt\n        /* \"#utility.yul\":7436:7437   */\n      0x00\n        /* \"#utility.yul\":7433:7434   */\n      dup5\n        /* \"#utility.yul\":7429:7438   */\n      sgt\n        /* \"#utility.yul\":7425:7450   */\n      and\n        /* \"#utility.yul\":7421:7534   */\n      and\n        /* \"#utility.yul\":7418:7557   */\n      iszero\n      tag_178\n      jumpi\n        /* \"#utility.yul\":7537:7555   */\n      tag_179\n      tag_78\n      jump\t// in\n    tag_179:\n        /* \"#utility.yul\":7418:7557   */\n    tag_178:\n        /* \"#utility.yul\":7741:7742   */\n      dup2\n        /* \"#utility.yul\":7673:7739   */\n      0x8000000000000000000000000000000000000000000000000000000000000000\n        /* \"#utility.yul\":7668:7743   */\n      sdiv\n        /* \"#utility.yul\":7665:7666   */\n      dup4\n        /* \"#utility.yul\":7661:7744   */\n      slt\n        /* \"#utility.yul\":7656:7657   */\n      0x00\n        /* \"#utility.yul\":7653:7654   */\n      dup5\n        /* \"#utility.yul\":7649:7658   */\n      slt\n        /* \"#utility.yul\":7645:7646   */\n      0x00\n        /* \"#utility.yul\":7642:7643   */\n      dup5\n        /* \"#utility.yul\":7638:7647   */\n      sgt\n        /* \"#utility.yul\":7634:7659   */\n      and\n        /* \"#utility.yul\":7630:7745   */\n      and\n        /* \"#utility.yul\":7627:7768   */\n      iszero\n      tag_180\n      jumpi\n        /* \"#utility.yul\":7748:7766   */\n      tag_181\n      tag_78\n      jump\t// in\n    tag_181:\n        /* \"#utility.yul\":7627:7768   */\n    tag_180:\n        /* \"#utility.yul\":7952:7953   */\n      dup3\n        /* \"#utility.yul\":7884:7950   */\n      0x8000000000000000000000000000000000000000000000000000000000000000\n        /* \"#utility.yul\":7879:7954   */\n      sdiv\n        /* \"#utility.yul\":7876:7877   */\n      dup3\n        /* \"#utility.yul\":7872:7955   */\n      slt\n        /* \"#utility.yul\":7867:7868   */\n      0x00\n        /* \"#utility.yul\":7864:7865   */\n      dup5\n        /* \"#utility.yul\":7860:7869   */\n      sgt\n        /* \"#utility.yul\":7856:7857   */\n      0x00\n        /* \"#utility.yul\":7853:7854   */\n      dup5\n        /* \"#utility.yul\":7849:7858   */\n      slt\n        /* \"#utility.yul\":7845:7870   */\n      and\n        /* \"#utility.yul\":7841:7956   */\n      and\n        /* \"#utility.yul\":7838:7979   */\n      iszero\n      tag_182\n      jumpi\n        /* \"#utility.yul\":7959:7977   */\n      tag_183\n      tag_78\n      jump\t// in\n    tag_183:\n        /* \"#utility.yul\":7838:7979   */\n    tag_182:\n        /* \"#utility.yul\":8162:8163   */\n      dup3\n        /* \"#utility.yul\":8094:8160   */\n      0x7fffffffffffffffffffffffffffffffffffffffffffffffffffffffffffffff\n        /* \"#utility.yul\":8089:8164   */\n      sdiv\n        /* \"#utility.yul\":8086:8087   */\n      dup3\n        /* \"#utility.yul\":8082:8165   */\n      slt\n        /* \"#utility.yul\":8077:8078   */\n      0x00\n        /* \"#utility.yul\":8074:8075   */\n      dup5\n        /* \"#utility.yul\":8070:8079   */\n      slt\n        /* \"#utility.yul\":8066:8067   */\n      0x00\n        /* \"#utility.yul\":8063:8064   */\n      dup5\n        /* \"#utility.yul\":8059:8068   */\n      slt\n        /* \"#utility.yul\":8055:8080   */\n      and\n        /* \"#utility.yul\":8051:8166   */\n      and\n        /* \"#utility.yul\":8048:8189   */\n      iszero\n      tag_184\n      jumpi\n        /* \"#utility.yul\":8169:8187   */\n      tag_185\n      tag_78\n      jump\t// in\n    tag_185:\n        /* \"#utility.yul\":8048:8189   */\n    tag_184:\n        /* \"#utility.yul\":8217:8218   */\n      dup3\n        /* \"#utility.yul\":8214:8215   */\n      dup3\n        /* \"#utility.yul\":8210:8219   */\n      mul\n        /* \"#utility.yul\":8199:8219   */\n      swap1\n      pop\n        /* \"#utility.yul\":7234:8225   */\n      swap3\n      swap2\n      pop\n      pop\n      jump\t// out\n\n    auxdata: 0xa26469706673582212200c9e95b4ed3d8e06c4d211a52b9c41e71d8a94f802f8ad45498d6f1bbcf02e5064736f6c63430008080033\n}\n",
				"bytecode": {
					"linkReferences": {},
					"object": "60806040526802b5e3af16b188000060005534801561001d57600080fd5b506109eb8061002d6000396000f3fe60806040526004361061004a5760003560e01c8063098de8201461004f5780633ccfd60b1461007a5780633e47d6f314610091578063b60d4288146100ce578063dc0d3dff146100d8575b600080fd5b34801561005b57600080fd5b50610064610115565b6040516100719190610434565b60405180910390f35b34801561008657600080fd5b5061008f61011b565b005b34801561009d57600080fd5b506100b860048036038101906100b391906104b2565b6101ca565b6040516100c59190610434565b60405180910390f35b6100d66101e2565b005b3480156100e457600080fd5b506100ff60048036038101906100fa919061050b565b6102ea565b60405161010c9190610547565b60405180910390f35b60005481565b60005b6001805490508110156101c75760006001828154811061014157610140610562565b5b9060005260206000200160009054906101000a900473ffffffffffffffffffffffffffffffffffffffff1690506000600260008373ffffffffffffffffffffffffffffffffffffffff1673ffffffffffffffffffffffffffffffffffffffff168152602001908152602001600020819055505080806101bf906105c0565b91505061011e565b50565b60026020528060005260406000206000915090505481565b6000546101ee34610329565b101561022f576040517f08c379a000000000000000000000000000000000000000000000000000000000815260040161022690610666565b60405180910390fd5b6001339080600181540180825580915050600190039060005260206000200160009091909190916101000a81548173ffffffffffffffffffffffffffffffffffffffff021916908373ffffffffffffffffffffffffffffffffffffffff16021790555034600260003373ffffffffffffffffffffffffffffffffffffffff1673ffffffffffffffffffffffffffffffffffffffff16815260200190815260200160002060008282546102e19190610686565b92505081905550565b600181815481106102fa57600080fd5b906000526020600020016000915054906101000a900473ffffffffffffffffffffffffffffffffffffffff1681565b600080610334610363565b90506000670de0b6b3a7640000848361034d91906106dc565b6103579190610765565b90508092505050919050565b600080738a753747a1fa494ec906ce90e9f37563a8af630e905060008173ffffffffffffffffffffffffffffffffffffffff1663feaf968c6040518163ffffffff1660e01b815260040160a06040518083038186803b1580156103c557600080fd5b505afa1580156103d9573d6000803e3d6000fd5b505050506040513d601f19601f820116820180604052508101906103fd9190610823565b5050509150506402540be40081610414919061089e565b9250505090565b6000819050919050565b61042e8161041b565b82525050565b60006020820190506104496000830184610425565b92915050565b600080fd5b600073ffffffffffffffffffffffffffffffffffffffff82169050919050565b600061047f82610454565b9050919050565b61048f81610474565b811461049a57600080fd5b50565b6000813590506104ac81610486565b92915050565b6000602082840312156104c8576104c761044f565b5b60006104d68482850161049d565b91505092915050565b6104e88161041b565b81146104f357600080fd5b50565b600081359050610505816104df565b92915050565b6000602082840312156105215761052061044f565b5b600061052f848285016104f6565b91505092915050565b61054181610474565b82525050565b600060208201905061055c6000830184610538565b92915050565b7f4e487b7100000000000000000000000000000000000000000000000000000000600052603260045260246000fd5b7f4e487b7100000000000000000000000000000000000000000000000000000000600052601160045260246000fd5b60006105cb8261041b565b91507fffffffffffffffffffffffffffffffffffffffffffffffffffffffffffffffff8214156105fe576105fd610591565b5b600182019050919050565b600082825260208201905092915050565b7f4469646e742073656e6420656e6f756768000000000000000000000000000000600082015250565b6000610650601183610609565b915061065b8261061a565b602082019050919050565b6000602082019050818103600083015261067f81610643565b9050919050565b60006106918261041b565b915061069c8361041b565b9250827fffffffffffffffffffffffffffffffffffffffffffffffffffffffffffffffff038211156106d1576106d0610591565b5b828201905092915050565b60006106e78261041b565b91506106f28361041b565b9250817fffffffffffffffffffffffffffffffffffffffffffffffffffffffffffffffff048311821515161561072b5761072a610591565b5b828202905092915050565b7f4e487b7100000000000000000000000000000000000000000000000000000000600052601260045260246000fd5b60006107708261041b565b915061077b8361041b565b92508261078b5761078a610736565b5b828204905092915050565b600069ffffffffffffffffffff82169050919050565b6107b581610796565b81146107c057600080fd5b50565b6000815190506107d2816107ac565b92915050565b6000819050919050565b6107eb816107d8565b81146107f657600080fd5b50565b600081519050610808816107e2565b92915050565b60008151905061081d816104df565b92915050565b600080600080600060a0868803121561083f5761083e61044f565b5b600061084d888289016107c3565b955050602061085e888289016107f9565b945050604061086f8882890161080e565b93505060606108808882890161080e565b9250506080610891888289016107c3565b9150509295509295909350565b60006108a9826107d8565b91506108b4836107d8565b9250827f7fffffffffffffffffffffffffffffffffffffffffffffffffffffffffffffff04821160008413600084131616156108f3576108f2610591565b5b817f800000000000000000000000000000000000000000000000000000000000000005831260008412600084131616156109305761092f610591565b5b827f8000000000000000000000000000000000000000000000000000000000000000058212600084136000841216161561096d5761096c610591565b5b827f7fffffffffffffffffffffffffffffffffffffffffffffffffffffffffffffff05821260008412600084121616156109aa576109a9610591565b5b82820290509291505056fea26469706673582212200c9e95b4ed3d8e06c4d211a52b9c41e71d8a94f802f8ad45498d6f1bbcf02e5064736f6c63430008080033",
					"opcodes": "PUSH1 0x80 PUSH1 0x40 MSTORE PUSH9 0x2B5E3AF16B1880000 PUSH1 0x0 SSTORE CALLVALUE DUP1 ISZERO PUSH2 0x1D JUMPI PUSH1 0x0 DUP1 REVERT JUMPDEST POP PUSH2 0x9EB DUP1 PUSH2 0x2D PUSH1 0x0 CODECOPY PUSH1 0x0 RETURN INVALID PUSH1 0x80 PUSH1 0x40 MSTORE PUSH1 0x4 CALLDATASIZE LT PUSH2 0x4A JUMPI PUSH1 0x0 CALLDATALOAD PUSH1 0xE0 SHR DUP1 PUSH4 0x98DE820 EQ PUSH2 0x4F JUMPI DUP1 PUSH4 0x3CCFD60B EQ PUSH2 0x7A JUMPI DUP1 PUSH4 0x3E47D6F3 EQ PUSH2 0x91 JUMPI DUP1 PUSH4 0xB60D4288 EQ PUSH2 0xCE JUMPI DUP1 PUSH4 0xDC0D3DFF EQ PUSH2 0xD8 JUMPI JUMPDEST PUSH1 0x0 DUP1 REVERT JUMPDEST CALLVALUE DUP1 ISZERO PUSH2 0x5B JUMPI PUSH1 0x0 DUP1 REVERT JUMPDEST POP PUSH2 0x64 PUSH2 0x115 JUMP JUMPDEST PUSH1 0x40 MLOAD PUSH2 0x71 SWAP2 SWAP1 PUSH2 0x434 JUMP JUMPDEST PUSH1 0x40 MLOAD DUP1 SWAP2 SUB SWAP1 RETURN JUMPDEST CALLVALUE DUP1 ISZERO PUSH2 0x86 JUMPI PUSH1 0x0 DUP1 REVERT JUMPDEST POP PUSH2 0x8F PUSH2 0x11B JUMP JUMPDEST STOP JUMPDEST CALLVALUE DUP1 ISZERO PUSH2 0x9D JUMPI PUSH1 0x0 DUP1 REVERT JUMPDEST POP PUSH2 0xB8 PUSH1 0x4 DUP1 CALLDATASIZE SUB DUP2 ADD SWAP1 PUSH2 0xB3 SWAP2 SWAP1 PUSH2 0x4B2 JUMP JUMPDEST PUSH2 0x1CA JUMP JUMPDEST PUSH1 0x40 MLOAD PUSH2 0xC5 SWAP2 SWAP1 PUSH2 0x434 JUMP JUMPDEST PUSH1 0x40 MLOAD DUP1 SWAP2 SUB SWAP1 RETURN JUMPDEST PUSH2 0xD6 PUSH2 0x1E2 JUMP JUMPDEST STOP JUMPDEST CALLVALUE DUP1 ISZERO PUSH2 0xE4 JUMPI PUSH1 0x0 DUP1 REVERT JUMPDEST POP PUSH2 0xFF PUSH1 0x4 DUP1 CALLDATASIZE SUB DUP2 ADD SWAP1 PUSH2 0xFA SWAP2 SWAP1 PUSH2 0x50B JUMP JUMPDEST PUSH2 0x2EA JUMP JUMPDEST PUSH1 0x40 MLOAD PUSH2 0x10C SWAP2 SWAP1 PUSH2 0x547 JUMP JUMPDEST PUSH1 0x40 MLOAD DUP1 SWAP2 SUB SWAP1 RETURN JUMPDEST PUSH1 0x0 SLOAD DUP2 JUMP JUMPDEST PUSH1 0x0 JUMPDEST PUSH1 0x1 DUP1 SLOAD SWAP1 POP DUP2 LT ISZERO PUSH2 0x1C7 JUMPI PUSH1 0x0 PUSH1 0x1 DUP3 DUP2 SLOAD DUP2 LT PUSH2 0x141 JUMPI PUSH2 0x140 PUSH2 0x562 JUMP JUMPDEST JUMPDEST SWAP1 PUSH1 0x0 MSTORE PUSH1 0x20 PUSH1 0x0 KECCAK256 ADD PUSH1 0x0 SWAP1 SLOAD SWAP1 PUSH2 0x100 EXP SWAP1 DIV PUSH20 0xFFFFFFFFFFFFFFFFFFFFFFFFFFFFFFFFFFFFFFFF AND SWAP1 POP PUSH1 0x0 PUSH1 0x2 PUSH1 0x0 DUP4 PUSH20 0xFFFFFFFFFFFFFFFFFFFFFFFFFFFFFFFFFFFFFFFF AND PUSH20 0xFFFFFFFFFFFFFFFFFFFFFFFFFFFFFFFFFFFFFFFF AND DUP2 MSTORE PUSH1 0x20 ADD SWAP1 DUP2 MSTORE PUSH1 0x20 ADD PUSH1 0x0 KECCAK256 DUP2 SWAP1 SSTORE POP POP DUP1 DUP1 PUSH2 0x1BF SWAP1 PUSH2 0x5C0 JUMP JUMPDEST SWAP2 POP POP PUSH2 0x11E JUMP JUMPDEST POP JUMP JUMPDEST PUSH1 0x2 PUSH1 0x20 MSTORE DUP1 PUSH1 0x0 MSTORE PUSH1 0x40 PUSH1 0x0 KECCAK256 PUSH1 0x0 SWAP2 POP SWAP1 POP SLOAD DUP2 JUMP JUMPDEST PUSH1 0x0 SLOAD PUSH2 0x1EE CALLVALUE PUSH2 0x329 JUMP JUMPDEST LT ISZERO PUSH2 0x22F JUMPI PUSH1 0x40 MLOAD PUSH32 0x8C379A000000000000000000000000000000000000000000000000000000000 DUP2 MSTORE PUSH1 0x4 ADD PUSH2 0x226 SWAP1 PUSH2 0x666 JUMP JUMPDEST PUSH1 0x40 MLOAD DUP1 SWAP2 SUB SWAP1 REVERT JUMPDEST PUSH1 0x1 CALLER SWAP1 DUP1 PUSH1 0x1 DUP2 SLOAD ADD DUP1 DUP3 SSTORE DUP1 SWAP2 POP POP PUSH1 0x1 SWAP1 SUB SWAP1 PUSH1 0x0 MSTORE PUSH1 0x20 PUSH1 0x0 KECCAK256 ADD PUSH1 0x0 SWAP1 SWAP2 SWAP1 SWAP2 SWAP1 SWAP2 PUSH2 0x100 EXP DUP2 SLOAD DUP2 PUSH20 0xFFFFFFFFFFFFFFFFFFFFFFFFFFFFFFFFFFFFFFFF MUL NOT AND SWAP1 DUP4 PUSH20 0xFFFFFFFFFFFFFFFFFFFFFFFFFFFFFFFFFFFFFFFF AND MUL OR SWAP1 SSTORE POP CALLVALUE PUSH1 0x2 PUSH1 0x0 CALLER PUSH20 0xFFFFFFFFFFFFFFFFFFFFFFFFFFFFFFFFFFFFFFFF AND PUSH20 0xFFFFFFFFFFFFFFFFFFFFFFFFFFFFFFFFFFFFFFFF AND DUP2 MSTORE PUSH1 0x20 ADD SWAP1 DUP2 MSTORE PUSH1 0x20 ADD PUSH1 0x0 KECCAK256 PUSH1 0x0 DUP3 DUP3 SLOAD PUSH2 0x2E1 SWAP2 SWAP1 PUSH2 0x686 JUMP JUMPDEST SWAP3 POP POP DUP2 SWAP1 SSTORE POP JUMP JUMPDEST PUSH1 0x1 DUP2 DUP2 SLOAD DUP2 LT PUSH2 0x2FA JUMPI PUSH1 0x0 DUP1 REVERT JUMPDEST SWAP1 PUSH1 0x0 MSTORE PUSH1 0x20 PUSH1 0x0 KECCAK256 ADD PUSH1 0x0 SWAP2 POP SLOAD SWAP1 PUSH2 0x100 EXP SWAP1 DIV PUSH20 0xFFFFFFFFFFFFFFFFFFFFFFFFFFFFFFFFFFFFFFFF AND DUP2 JUMP JUMPDEST PUSH1 0x0 DUP1 PUSH2 0x334 PUSH2 0x363 JUMP JUMPDEST SWAP1 POP PUSH1 0x0 PUSH8 0xDE0B6B3A7640000 DUP5 DUP4 PUSH2 0x34D SWAP2 SWAP1 PUSH2 0x6DC JUMP JUMPDEST PUSH2 0x357 SWAP2 SWAP1 PUSH2 0x765 JUMP JUMPDEST SWAP1 POP DUP1 SWAP3 POP POP POP SWAP2 SWAP1 POP JUMP JUMPDEST PUSH1 0x0 DUP1 PUSH20 0x8A753747A1FA494EC906CE90E9F37563A8AF630E SWAP1 POP PUSH1 0x0 DUP2 PUSH20 0xFFFFFFFFFFFFFFFFFFFFFFFFFFFFFFFFFFFFFFFF AND PUSH4 0xFEAF968C PUSH1 0x40 MLOAD DUP2 PUSH4 0xFFFFFFFF AND PUSH1 0xE0 SHL DUP2 MSTORE PUSH1 0x4 ADD PUSH1 0xA0 PUSH1 0x40 MLOAD DUP1 DUP4 SUB DUP2 DUP7 DUP1 EXTCODESIZE ISZERO DUP1 ISZERO PUSH2 0x3C5 JUMPI PUSH1 0x0 DUP1 REVERT JUMPDEST POP GAS STATICCALL ISZERO DUP1 ISZERO PUSH2 0x3D9 JUMPI RETURNDATASIZE PUSH1 0x0 DUP1 RETURNDATACOPY RETURNDATASIZE PUSH1 0x0 REVERT JUMPDEST POP POP POP POP PUSH1 0x40 MLOAD RETURNDATASIZE PUSH1 0x1F NOT PUSH1 0x1F DUP3 ADD AND DUP3 ADD DUP1 PUSH1 0x40 MSTORE POP DUP2 ADD SWAP1 PUSH2 0x3FD SWAP2 SWAP1 PUSH2 0x823 JUMP JUMPDEST POP POP POP SWAP2 POP POP PUSH5 0x2540BE400 DUP2 PUSH2 0x414 SWAP2 SWAP1 PUSH2 0x89E JUMP JUMPDEST SWAP3 POP POP POP SWAP1 JUMP JUMPDEST PUSH1 0x0 DUP2 SWAP1 POP SWAP2 SWAP1 POP JUMP JUMPDEST PUSH2 0x42E DUP2 PUSH2 0x41B JUMP JUMPDEST DUP3 MSTORE POP POP JUMP JUMPDEST PUSH1 0x0 PUSH1 0x20 DUP3 ADD SWAP1 POP PUSH2 0x449 PUSH1 0x0 DUP4 ADD DUP5 PUSH2 0x425 JUMP JUMPDEST SWAP3 SWAP2 POP POP JUMP JUMPDEST PUSH1 0x0 DUP1 REVERT JUMPDEST PUSH1 0x0 PUSH20 0xFFFFFFFFFFFFFFFFFFFFFFFFFFFFFFFFFFFFFFFF DUP3 AND SWAP1 POP SWAP2 SWAP1 POP JUMP JUMPDEST PUSH1 0x0 PUSH2 0x47F DUP3 PUSH2 0x454 JUMP JUMPDEST SWAP1 POP SWAP2 SWAP1 POP JUMP JUMPDEST PUSH2 0x48F DUP2 PUSH2 0x474 JUMP JUMPDEST DUP2 EQ PUSH2 0x49A JUMPI PUSH1 0x0 DUP1 REVERT JUMPDEST POP JUMP JUMPDEST PUSH1 0x0 DUP2 CALLDATALOAD SWAP1 POP PUSH2 0x4AC DUP2 PUSH2 0x486 JUMP JUMPDEST SWAP3 SWAP2 POP POP JUMP JUMPDEST PUSH1 0x0 PUSH1 0x20 DUP3 DUP5 SUB SLT ISZERO PUSH2 0x4C8 JUMPI PUSH2 0x4C7 PUSH2 0x44F JUMP JUMPDEST JUMPDEST PUSH1 0x0 PUSH2 0x4D6 DUP5 DUP3 DUP6 ADD PUSH2 0x49D JUMP JUMPDEST SWAP2 POP POP SWAP3 SWAP2 POP POP JUMP JUMPDEST PUSH2 0x4E8 DUP2 PUSH2 0x41B JUMP JUMPDEST DUP2 EQ PUSH2 0x4F3 JUMPI PUSH1 0x0 DUP1 REVERT JUMPDEST POP JUMP JUMPDEST PUSH1 0x0 DUP2 CALLDATALOAD SWAP1 POP PUSH2 0x505 DUP2 PUSH2 0x4DF JUMP JUMPDEST SWAP3 SWAP2 POP POP JUMP JUMPDEST PUSH1 0x0 PUSH1 0x20 DUP3 DUP5 SUB SLT ISZERO PUSH2 0x521 JUMPI PUSH2 0x520 PUSH2 0x44F JUMP JUMPDEST JUMPDEST PUSH1 0x0 PUSH2 0x52F DUP5 DUP3 DUP6 ADD PUSH2 0x4F6 JUMP JUMPDEST SWAP2 POP POP SWAP3 SWAP2 POP POP JUMP JUMPDEST PUSH2 0x541 DUP2 PUSH2 0x474 JUMP JUMPDEST DUP3 MSTORE POP POP JUMP JUMPDEST PUSH1 0x0 PUSH1 0x20 DUP3 ADD SWAP1 POP PUSH2 0x55C PUSH1 0x0 DUP4 ADD DUP5 PUSH2 0x538 JUMP JUMPDEST SWAP3 SWAP2 POP POP JUMP JUMPDEST PUSH32 0x4E487B7100000000000000000000000000000000000000000000000000000000 PUSH1 0x0 MSTORE PUSH1 0x32 PUSH1 0x4 MSTORE PUSH1 0x24 PUSH1 0x0 REVERT JUMPDEST PUSH32 0x4E487B7100000000000000000000000000000000000000000000000000000000 PUSH1 0x0 MSTORE PUSH1 0x11 PUSH1 0x4 MSTORE PUSH1 0x24 PUSH1 0x0 REVERT JUMPDEST PUSH1 0x0 PUSH2 0x5CB DUP3 PUSH2 0x41B JUMP JUMPDEST SWAP2 POP PUSH32 0xFFFFFFFFFFFFFFFFFFFFFFFFFFFFFFFFFFFFFFFFFFFFFFFFFFFFFFFFFFFFFFFF DUP3 EQ ISZERO PUSH2 0x5FE JUMPI PUSH2 0x5FD PUSH2 0x591 JUMP JUMPDEST JUMPDEST PUSH1 0x1 DUP3 ADD SWAP1 POP SWAP2 SWAP1 POP JUMP JUMPDEST PUSH1 0x0 DUP3 DUP3 MSTORE PUSH1 0x20 DUP3 ADD SWAP1 POP SWAP3 SWAP2 POP POP JUMP JUMPDEST PUSH32 0x4469646E742073656E6420656E6F756768000000000000000000000000000000 PUSH1 0x0 DUP3 ADD MSTORE POP JUMP JUMPDEST PUSH1 0x0 PUSH2 0x650 PUSH1 0x11 DUP4 PUSH2 0x609 JUMP JUMPDEST SWAP2 POP PUSH2 0x65B DUP3 PUSH2 0x61A JUMP JUMPDEST PUSH1 0x20 DUP3 ADD SWAP1 POP SWAP2 SWAP1 POP JUMP JUMPDEST PUSH1 0x0 PUSH1 0x20 DUP3 ADD SWAP1 POP DUP2 DUP2 SUB PUSH1 0x0 DUP4 ADD MSTORE PUSH2 0x67F DUP2 PUSH2 0x643 JUMP JUMPDEST SWAP1 POP SWAP2 SWAP1 POP JUMP JUMPDEST PUSH1 0x0 PUSH2 0x691 DUP3 PUSH2 0x41B JUMP JUMPDEST SWAP2 POP PUSH2 0x69C DUP4 PUSH2 0x41B JUMP JUMPDEST SWAP3 POP DUP3 PUSH32 0xFFFFFFFFFFFFFFFFFFFFFFFFFFFFFFFFFFFFFFFFFFFFFFFFFFFFFFFFFFFFFFFF SUB DUP3 GT ISZERO PUSH2 0x6D1 JUMPI PUSH2 0x6D0 PUSH2 0x591 JUMP JUMPDEST JUMPDEST DUP3 DUP3 ADD SWAP1 POP SWAP3 SWAP2 POP POP JUMP JUMPDEST PUSH1 0x0 PUSH2 0x6E7 DUP3 PUSH2 0x41B JUMP JUMPDEST SWAP2 POP PUSH2 0x6F2 DUP4 PUSH2 0x41B JUMP JUMPDEST SWAP3 POP DUP2 PUSH32 0xFFFFFFFFFFFFFFFFFFFFFFFFFFFFFFFFFFFFFFFFFFFFFFFFFFFFFFFFFFFFFFFF DIV DUP4 GT DUP3 ISZERO ISZERO AND ISZERO PUSH2 0x72B JUMPI PUSH2 0x72A PUSH2 0x591 JUMP JUMPDEST JUMPDEST DUP3 DUP3 MUL SWAP1 POP SWAP3 SWAP2 POP POP JUMP JUMPDEST PUSH32 0x4E487B7100000000000000000000000000000000000000000000000000000000 PUSH1 0x0 MSTORE PUSH1 0x12 PUSH1 0x4 MSTORE PUSH1 0x24 PUSH1 0x0 REVERT JUMPDEST PUSH1 0x0 PUSH2 0x770 DUP3 PUSH2 0x41B JUMP JUMPDEST SWAP2 POP PUSH2 0x77B DUP4 PUSH2 0x41B JUMP JUMPDEST SWAP3 POP DUP3 PUSH2 0x78B JUMPI PUSH2 0x78A PUSH2 0x736 JUMP JUMPDEST JUMPDEST DUP3 DUP3 DIV SWAP1 POP SWAP3 SWAP2 POP POP JUMP JUMPDEST PUSH1 0x0 PUSH10 0xFFFFFFFFFFFFFFFFFFFF DUP3 AND SWAP1 POP SWAP2 SWAP1 POP JUMP JUMPDEST PUSH2 0x7B5 DUP2 PUSH2 0x796 JUMP JUMPDEST DUP2 EQ PUSH2 0x7C0 JUMPI PUSH1 0x0 DUP1 REVERT JUMPDEST POP JUMP JUMPDEST PUSH1 0x0 DUP2 MLOAD SWAP1 POP PUSH2 0x7D2 DUP2 PUSH2 0x7AC JUMP JUMPDEST SWAP3 SWAP2 POP POP JUMP JUMPDEST PUSH1 0x0 DUP2 SWAP1 POP SWAP2 SWAP1 POP JUMP JUMPDEST PUSH2 0x7EB DUP2 PUSH2 0x7D8 JUMP JUMPDEST DUP2 EQ PUSH2 0x7F6 JUMPI PUSH1 0x0 DUP1 REVERT JUMPDEST POP JUMP JUMPDEST PUSH1 0x0 DUP2 MLOAD SWAP1 POP PUSH2 0x808 DUP2 PUSH2 0x7E2 JUMP JUMPDEST SWAP3 SWAP2 POP POP JUMP JUMPDEST PUSH1 0x0 DUP2 MLOAD SWAP1 POP PUSH2 0x81D DUP2 PUSH2 0x4DF JUMP JUMPDEST SWAP3 SWAP2 POP POP JUMP JUMPDEST PUSH1 0x0 DUP1 PUSH1 0x0 DUP1 PUSH1 0x0 PUSH1 0xA0 DUP7 DUP9 SUB SLT ISZERO PUSH2 0x83F JUMPI PUSH2 0x83E PUSH2 0x44F JUMP JUMPDEST JUMPDEST PUSH1 0x0 PUSH2 0x84D DUP9 DUP3 DUP10 ADD PUSH2 0x7C3 JUMP JUMPDEST SWAP6 POP POP PUSH1 0x20 PUSH2 0x85E DUP9 DUP3 DUP10 ADD PUSH2 0x7F9 JUMP JUMPDEST SWAP5 POP POP PUSH1 0x40 PUSH2 0x86F DUP9 DUP3 DUP10 ADD PUSH2 0x80E JUMP JUMPDEST SWAP4 POP POP PUSH1 0x60 PUSH2 0x880 DUP9 DUP3 DUP10 ADD PUSH2 0x80E JUMP JUMPDEST SWAP3 POP POP PUSH1 0x80 PUSH2 0x891 DUP9 DUP3 DUP10 ADD PUSH2 0x7C3 JUMP JUMPDEST SWAP2 POP POP SWAP3 SWAP6 POP SWAP3 SWAP6 SWAP1 SWAP4 POP JUMP JUMPDEST PUSH1 0x0 PUSH2 0x8A9 DUP3 PUSH2 0x7D8 JUMP JUMPDEST SWAP2 POP PUSH2 0x8B4 DUP4 PUSH2 0x7D8 JUMP JUMPDEST SWAP3 POP DUP3 PUSH32 0x7FFFFFFFFFFFFFFFFFFFFFFFFFFFFFFFFFFFFFFFFFFFFFFFFFFFFFFFFFFFFFFF DIV DUP3 GT PUSH1 0x0 DUP5 SGT PUSH1 0x0 DUP5 SGT AND AND ISZERO PUSH2 0x8F3 JUMPI PUSH2 0x8F2 PUSH2 0x591 JUMP JUMPDEST JUMPDEST DUP2 PUSH32 0x8000000000000000000000000000000000000000000000000000000000000000 SDIV DUP4 SLT PUSH1 0x0 DUP5 SLT PUSH1 0x0 DUP5 SGT AND AND ISZERO PUSH2 0x930 JUMPI PUSH2 0x92F PUSH2 0x591 JUMP JUMPDEST JUMPDEST DUP3 PUSH32 0x8000000000000000000000000000000000000000000000000000000000000000 SDIV DUP3 SLT PUSH1 0x0 DUP5 SGT PUSH1 0x0 DUP5 SLT AND AND ISZERO PUSH2 0x96D JUMPI PUSH2 0x96C PUSH2 0x591 JUMP JUMPDEST JUMPDEST DUP3 PUSH32 0x7FFFFFFFFFFFFFFFFFFFFFFFFFFFFFFFFFFFFFFFFFFFFFFFFFFFFFFFFFFFFFFF SDIV DUP3 SLT PUSH1 0x0 DUP5 SLT PUSH1 0x0 DUP5 SLT AND AND ISZERO PUSH2 0x9AA JUMPI PUSH2 0x9A9 PUSH2 0x591 JUMP JUMPDEST JUMPDEST DUP3 DUP3 MUL SWAP1 POP SWAP3 SWAP2 POP POP JUMP INVALID LOG2 PUSH5 0x6970667358 0x22 SLT KECCAK256 0xC SWAP15 SWAP6 0xB4 0xED RETURNDATASIZE DUP15 MOD 0xC4 0xD2 GT 0xA5 0x2B SWAP13 COINBASE 0xE7 SAR DUP11 SWAP5 0xF8 MUL 0xF8 0xAD GASLIMIT 0x49 DUP14 PUSH16 0x1BBCF02E5064736F6C63430008080033 "
				},
				"gasEstimates": {
					"creation": {
						"codeDepositCost": "507800",
						"executionCost": "22649",
						"totalCost": "530449"
					},
					"external": {
						"addressToAmountFunded(address)": "2836",
						"fund()": "infinite",
						"funders(uint256)": "5022",
						"minimumUsd()": "2407",
						"withdraw()": "infinite"
					}
				},
				"methodIdentifiers": {
					"addressToAmountFunded(address)": "3e47d6f3",
					"fund()": "b60d4288",
					"funders(uint256)": "dc0d3dff",
					"minimumUsd()": "098de820",
					"withdraw()": "3ccfd60b"
				}
			},
			"storageLayout": {
				"storage": [
					{
						"astId": 56,
						"contract": "contracts/Lesson 4/FundeMe.sol:FundMe",
						"label": "minimumUsd",
						"offset": 0,
						"slot": "0",
						"type": "t_uint256"
					},
					{
						"astId": 59,
						"contract": "contracts/Lesson 4/FundeMe.sol:FundMe",
						"label": "funders",
						"offset": 0,
						"slot": "1",
						"type": "t_array(t_address)dyn_storage"
					},
					{
						"astId": 63,
						"contract": "contracts/Lesson 4/FundeMe.sol:FundMe",
						"label": "addressToAmountFunded",
						"offset": 0,
						"slot": "2",
						"type": "t_mapping(t_address,t_uint256)"
					}
				],
				"types": {
					"t_address": {
						"encoding": "inplace",
						"label": "address",
						"numberOfBytes": "20"
					},
					"t_array(t_address)dyn_storage": {
						"base": "t_address",
						"encoding": "dynamic_array",
						"label": "address[]",
						"numberOfBytes": "32"
					},
					"t_mapping(t_address,t_uint256)": {
						"encoding": "mapping",
						"key": "t_address",
						"label": "mapping(address => uint256)",
						"numberOfBytes": "32",
						"value": "t_uint256"
					},
					"t_uint256": {
						"encoding": "inplace",
						"label": "uint256",
						"numberOfBytes": "32"
					}
				}
			},
			"userdoc": {
				"kind": "user",
				"methods": {},
				"version": 1
			}
		}
	}
}