{
	"contracts/Lesson 4/FundeMe.sol": {
		"FundMe": {
			"abi": [
				{
					"inputs": [],
					"name": "fund",
					"outputs": [],
					"stateMutability": "payable",
					"type": "function"
				},
				{
					"inputs": [
						{
							"internalType": "uint256",
							"name": "ethAmount",
							"type": "uint256"
						}
					],
					"name": "getConversionRate",
					"outputs": [
						{
							"internalType": "uint256",
							"name": "",
							"type": "uint256"
						}
					],
					"stateMutability": "view",
					"type": "function"
				},
				{
					"inputs": [],
					"name": "getPrice",
					"outputs": [
						{
							"internalType": "uint256",
							"name": "",
							"type": "uint256"
						}
					],
					"stateMutability": "view",
					"type": "function"
				},
				{
					"inputs": [],
					"name": "getVersion",
					"outputs": [
						{
							"internalType": "uint256",
							"name": "",
							"type": "uint256"
						}
					],
					"stateMutability": "view",
					"type": "function"
				},
				{
					"inputs": [],
					"name": "minimumUsd",
					"outputs": [
						{
							"internalType": "uint256",
							"name": "",
							"type": "uint256"
						}
					],
					"stateMutability": "view",
					"type": "function"
				},
				{
					"inputs": [],
					"name": "number",
					"outputs": [
						{
							"internalType": "uint256",
							"name": "",
							"type": "uint256"
						}
					],
					"stateMutability": "view",
					"type": "function"
				}
			],
			"devdoc": {
				"kind": "dev",
				"methods": {},
				"version": 1
			},
			"evm": {
				"assembly": "    /* \"contracts/Lesson 4/FundeMe.sol\":208:2651  contract FundMe {... */\n  mstore(0x40, 0x80)\n    /* \"contracts/Lesson 4/FundeMe.sol\":485:494  50 * 1e18 */\n  0x02b5e3af16b1880000\n    /* \"contracts/Lesson 4/FundeMe.sol\":460:494  uint public minimumUsd = 50 * 1e18 */\n  0x01\n  sstore\n    /* \"contracts/Lesson 4/FundeMe.sol\":208:2651  contract FundMe {... */\n  callvalue\n  dup1\n  iszero\n  tag_1\n  jumpi\n  0x00\n  dup1\n  revert\ntag_1:\n  pop\n  dataSize(sub_0)\n  dup1\n  dataOffset(sub_0)\n  0x00\n  codecopy\n  0x00\n  return\nstop\n\nsub_0: assembly {\n        /* \"contracts/Lesson 4/FundeMe.sol\":208:2651  contract FundMe {... */\n      mstore(0x40, 0x80)\n      jumpi(tag_1, lt(calldatasize, 0x04))\n      shr(0xe0, calldataload(0x00))\n      dup1\n      0x098de820\n      eq\n      tag_2\n      jumpi\n      dup1\n      0x0d8e6e2c\n      eq\n      tag_3\n      jumpi\n      dup1\n      0x6e5b6b28\n      eq\n      tag_4\n      jumpi\n      dup1\n      0x8381f58a\n      eq\n      tag_5\n      jumpi\n      dup1\n      0x98d5fdca\n      eq\n      tag_6\n      jumpi\n      dup1\n      0xb60d4288\n      eq\n      tag_7\n      jumpi\n    tag_1:\n      0x00\n      dup1\n      revert\n        /* \"contracts/Lesson 4/FundeMe.sol\":460:494  uint public minimumUsd = 50 * 1e18 */\n    tag_2:\n      callvalue\n      dup1\n      iszero\n      tag_8\n      jumpi\n      0x00\n      dup1\n      revert\n    tag_8:\n      pop\n      tag_9\n      tag_10\n      jump\t// in\n    tag_9:\n      mload(0x40)\n      tag_11\n      swap2\n      swap1\n      tag_12\n      jump\t// in\n    tag_11:\n      mload(0x40)\n      dup1\n      swap2\n      sub\n      swap1\n      return\n        /* \"contracts/Lesson 4/FundeMe.sol\":2142:2348  function getVersion() public view returns (uint256){... */\n    tag_3:\n      callvalue\n      dup1\n      iszero\n      tag_13\n      jumpi\n      0x00\n      dup1\n      revert\n    tag_13:\n      pop\n      tag_14\n      tag_15\n      jump\t// in\n    tag_14:\n      mload(0x40)\n      tag_16\n      swap2\n      swap1\n      tag_12\n      jump\t// in\n    tag_16:\n      mload(0x40)\n      dup1\n      swap2\n      sub\n      swap1\n      return\n        /* \"contracts/Lesson 4/FundeMe.sol\":2356:2617  function getConversionRate(uint256 ethAmount)public view returns (uint256){... */\n    tag_4:\n      callvalue\n      dup1\n      iszero\n      tag_17\n      jumpi\n      0x00\n      dup1\n      revert\n    tag_17:\n      pop\n      tag_18\n      0x04\n      dup1\n      calldatasize\n      sub\n      dup2\n      add\n      swap1\n      tag_19\n      swap2\n      swap1\n      tag_20\n      jump\t// in\n    tag_19:\n      tag_21\n      jump\t// in\n    tag_18:\n      mload(0x40)\n      tag_22\n      swap2\n      swap1\n      tag_12\n      jump\t// in\n    tag_22:\n      mload(0x40)\n      dup1\n      swap2\n      sub\n      swap1\n      return\n        /* \"contracts/Lesson 4/FundeMe.sol\":435:453  uint public number */\n    tag_5:\n      callvalue\n      dup1\n      iszero\n      tag_23\n      jumpi\n      0x00\n      dup1\n      revert\n    tag_23:\n      pop\n      tag_24\n      tag_25\n      jump\t// in\n    tag_24:\n      mload(0x40)\n      tag_26\n      swap2\n      swap1\n      tag_12\n      jump\t// in\n    tag_26:\n      mload(0x40)\n      dup1\n      swap2\n      sub\n      swap1\n      return\n        /* \"contracts/Lesson 4/FundeMe.sol\":1499:2134  function getPrice()public view returns(uint256){... */\n    tag_6:\n      callvalue\n      dup1\n      iszero\n      tag_27\n      jumpi\n      0x00\n      dup1\n      revert\n    tag_27:\n      pop\n      tag_28\n      tag_29\n      jump\t// in\n    tag_28:\n      mload(0x40)\n      tag_30\n      swap2\n      swap1\n      tag_12\n      jump\t// in\n    tag_30:\n      mload(0x40)\n      dup1\n      swap2\n      sub\n      swap1\n      return\n        /* \"contracts/Lesson 4/FundeMe.sol\":503:1100  function fund()public payable{ //para enviar eth la funcion tiene que ser declarada como payable... */\n    tag_7:\n      tag_31\n      tag_32\n      jump\t// in\n    tag_31:\n      stop\n        /* \"contracts/Lesson 4/FundeMe.sol\":460:494  uint public minimumUsd = 50 * 1e18 */\n    tag_10:\n      sload(0x01)\n      dup2\n      jump\t// out\n        /* \"contracts/Lesson 4/FundeMe.sol\":2142:2348  function getVersion() public view returns (uint256){... */\n    tag_15:\n        /* \"contracts/Lesson 4/FundeMe.sol\":2185:2192  uint256 */\n      0x00\n        /* \"contracts/Lesson 4/FundeMe.sol\":2204:2235  AggregatorV3Interface priceFeed */\n      dup1\n        /* \"contracts/Lesson 4/FundeMe.sol\":2260:2302  0x8A753747A1Fa494EC906cE90E9f37563A8AF630e */\n      0x8a753747a1fa494ec906ce90e9f37563a8af630e\n        /* \"contracts/Lesson 4/FundeMe.sol\":2204:2303  AggregatorV3Interface priceFeed = AggregatorV3Interface(0x8A753747A1Fa494EC906cE90E9f37563A8AF630e) */\n      swap1\n      pop\n        /* \"contracts/Lesson 4/FundeMe.sol\":2321:2330  priceFeed */\n      dup1\n        /* \"contracts/Lesson 4/FundeMe.sol\":2321:2338  priceFeed.version */\n      0xffffffffffffffffffffffffffffffffffffffff\n      and\n      0x54fd4d50\n        /* \"contracts/Lesson 4/FundeMe.sol\":2321:2340  priceFeed.version() */\n      mload(0x40)\n      dup2\n      0xffffffff\n      and\n      0xe0\n      shl\n      dup2\n      mstore\n      0x04\n      add\n      0x20\n      mload(0x40)\n      dup1\n      dup4\n      sub\n      dup2\n      dup7\n      dup1\n      extcodesize\n      iszero\n      dup1\n      iszero\n      tag_34\n      jumpi\n      0x00\n      dup1\n      revert\n    tag_34:\n      pop\n      gas\n      staticcall\n      iszero\n      dup1\n      iszero\n      tag_36\n      jumpi\n      returndatasize\n      0x00\n      dup1\n      returndatacopy\n      revert(0x00, returndatasize)\n    tag_36:\n      pop\n      pop\n      pop\n      pop\n      mload(0x40)\n      returndatasize\n      not(0x1f)\n      0x1f\n      dup3\n      add\n      and\n      dup3\n      add\n      dup1\n      0x40\n      mstore\n      pop\n      dup2\n      add\n      swap1\n      tag_37\n      swap2\n      swap1\n      tag_38\n      jump\t// in\n    tag_37:\n        /* \"contracts/Lesson 4/FundeMe.sol\":2314:2340  return priceFeed.version() */\n      swap2\n      pop\n      pop\n        /* \"contracts/Lesson 4/FundeMe.sol\":2142:2348  function getVersion() public view returns (uint256){... */\n      swap1\n      jump\t// out\n        /* \"contracts/Lesson 4/FundeMe.sol\":2356:2617  function getConversionRate(uint256 ethAmount)public view returns (uint256){... */\n    tag_21:\n        /* \"contracts/Lesson 4/FundeMe.sol\":2422:2429  uint256 */\n      0x00\n        /* \"contracts/Lesson 4/FundeMe.sol\":2441:2457  uint256 ethPrice */\n      dup1\n        /* \"contracts/Lesson 4/FundeMe.sol\":2460:2470  getPrice() */\n      tag_40\n        /* \"contracts/Lesson 4/FundeMe.sol\":2460:2468  getPrice */\n      tag_29\n        /* \"contracts/Lesson 4/FundeMe.sol\":2460:2470  getPrice() */\n      jump\t// in\n    tag_40:\n        /* \"contracts/Lesson 4/FundeMe.sol\":2441:2470  uint256 ethPrice = getPrice() */\n      swap1\n      pop\n        /* \"contracts/Lesson 4/FundeMe.sol\":2481:2503  uint256 ethAmountInUsd */\n      0x00\n        /* \"contracts/Lesson 4/FundeMe.sol\":2531:2535  1e18 */\n      0x0de0b6b3a7640000\n        /* \"contracts/Lesson 4/FundeMe.sol\":2518:2527  ethAmount */\n      dup5\n        /* \"contracts/Lesson 4/FundeMe.sol\":2507:2515  ethPrice */\n      dup4\n        /* \"contracts/Lesson 4/FundeMe.sol\":2507:2527  ethPrice * ethAmount */\n      tag_41\n      swap2\n      swap1\n      tag_42\n      jump\t// in\n    tag_41:\n        /* \"contracts/Lesson 4/FundeMe.sol\":2506:2535  (ethPrice * ethAmount) / 1e18 */\n      tag_43\n      swap2\n      swap1\n      tag_44\n      jump\t// in\n    tag_43:\n        /* \"contracts/Lesson 4/FundeMe.sol\":2481:2535  uint256 ethAmountInUsd = (ethPrice * ethAmount) / 1e18 */\n      swap1\n      pop\n        /* \"contracts/Lesson 4/FundeMe.sol\":2595:2609  ethAmountInUsd */\n      dup1\n        /* \"contracts/Lesson 4/FundeMe.sol\":2588:2609  return ethAmountInUsd */\n      swap3\n      pop\n      pop\n      pop\n        /* \"contracts/Lesson 4/FundeMe.sol\":2356:2617  function getConversionRate(uint256 ethAmount)public view returns (uint256){... */\n      swap2\n      swap1\n      pop\n      jump\t// out\n        /* \"contracts/Lesson 4/FundeMe.sol\":435:453  uint public number */\n    tag_25:\n      sload(0x00)\n      dup2\n      jump\t// out\n        /* \"contracts/Lesson 4/FundeMe.sol\":1499:2134  function getPrice()public view returns(uint256){... */\n    tag_29:\n        /* \"contracts/Lesson 4/FundeMe.sol\":1538:1545  uint256 */\n      0x00\n        /* \"contracts/Lesson 4/FundeMe.sol\":1557:1588  AggregatorV3Interface priceFeed */\n      dup1\n        /* \"contracts/Lesson 4/FundeMe.sol\":1613:1655  0x8A753747A1Fa494EC906cE90E9f37563A8AF630e */\n      0x8a753747a1fa494ec906ce90e9f37563a8af630e\n        /* \"contracts/Lesson 4/FundeMe.sol\":1557:1656  AggregatorV3Interface priceFeed = AggregatorV3Interface(0x8A753747A1Fa494EC906cE90E9f37563A8AF630e) */\n      swap1\n      pop\n        /* \"contracts/Lesson 4/FundeMe.sol\":2040:2052  int256 price */\n      0x00\n        /* \"contracts/Lesson 4/FundeMe.sol\":2059:2068  priceFeed */\n      dup2\n        /* \"contracts/Lesson 4/FundeMe.sol\":2059:2084  priceFeed.latestRoundData */\n      0xffffffffffffffffffffffffffffffffffffffff\n      and\n      0xfeaf968c\n        /* \"contracts/Lesson 4/FundeMe.sol\":2059:2086  priceFeed.latestRoundData() */\n      mload(0x40)\n      dup2\n      0xffffffff\n      and\n      0xe0\n      shl\n      dup2\n      mstore\n      0x04\n      add\n      0xa0\n      mload(0x40)\n      dup1\n      dup4\n      sub\n      dup2\n      dup7\n      dup1\n      extcodesize\n      iszero\n      dup1\n      iszero\n      tag_46\n      jumpi\n      0x00\n      dup1\n      revert\n    tag_46:\n      pop\n      gas\n      staticcall\n      iszero\n      dup1\n      iszero\n      tag_48\n      jumpi\n      returndatasize\n      0x00\n      dup1\n      returndatacopy\n      revert(0x00, returndatasize)\n    tag_48:\n      pop\n      pop\n      pop\n      pop\n      mload(0x40)\n      returndatasize\n      not(0x1f)\n      0x1f\n      dup3\n      add\n      and\n      dup3\n      add\n      dup1\n      0x40\n      mstore\n      pop\n      dup2\n      add\n      swap1\n      tag_49\n      swap2\n      swap1\n      tag_50\n      jump\t// in\n    tag_49:\n        /* \"contracts/Lesson 4/FundeMe.sol\":2038:2086  (,int256 price,,,) = priceFeed.latestRoundData() */\n      pop\n      pop\n      pop\n      swap2\n      pop\n      pop\n        /* \"contracts/Lesson 4/FundeMe.sol\":2121:2125  1e10 */\n      0x02540be400\n        /* \"contracts/Lesson 4/FundeMe.sol\":2113:2118  price */\n      dup2\n        /* \"contracts/Lesson 4/FundeMe.sol\":2113:2125  price * 1e10 */\n      tag_51\n      swap2\n      swap1\n      tag_52\n      jump\t// in\n    tag_51:\n        /* \"contracts/Lesson 4/FundeMe.sol\":2098:2126  return uint256(price * 1e10) */\n      swap3\n      pop\n      pop\n      pop\n        /* \"contracts/Lesson 4/FundeMe.sol\":1499:2134  function getPrice()public view returns(uint256){... */\n      swap1\n      jump\t// out\n        /* \"contracts/Lesson 4/FundeMe.sol\":503:1100  function fund()public payable{ //para enviar eth la funcion tiene que ser declarada como payable... */\n    tag_32:\n        /* \"contracts/Lesson 4/FundeMe.sol\":1058:1068  minimumUsd */\n      sload(0x01)\n        /* \"contracts/Lesson 4/FundeMe.sol\":1026:1054  getConversionRate(msg.value) */\n      tag_54\n        /* \"contracts/Lesson 4/FundeMe.sol\":1044:1053  msg.value */\n      callvalue\n        /* \"contracts/Lesson 4/FundeMe.sol\":1026:1043  getConversionRate */\n      tag_21\n        /* \"contracts/Lesson 4/FundeMe.sol\":1026:1054  getConversionRate(msg.value) */\n      jump\t// in\n    tag_54:\n        /* \"contracts/Lesson 4/FundeMe.sol\":1026:1068  getConversionRate(msg.value) >= minimumUsd */\n      lt\n      iszero\n        /* \"contracts/Lesson 4/FundeMe.sol\":1018:1090  require(getConversionRate(msg.value) >= minimumUsd, \"Didnt send enough\") */\n      tag_55\n      jumpi\n      mload(0x40)\n      0x08c379a000000000000000000000000000000000000000000000000000000000\n      dup2\n      mstore\n      0x04\n      add\n      tag_56\n      swap1\n      tag_57\n      jump\t// in\n    tag_56:\n      mload(0x40)\n      dup1\n      swap2\n      sub\n      swap1\n      revert\n    tag_55:\n        /* \"contracts/Lesson 4/FundeMe.sol\":503:1100  function fund()public payable{ //para enviar eth la funcion tiene que ser declarada como payable... */\n      jump\t// out\n        /* \"#utility.yul\":7:84   */\n    tag_58:\n        /* \"#utility.yul\":44:51   */\n      0x00\n        /* \"#utility.yul\":73:78   */\n      dup2\n        /* \"#utility.yul\":62:78   */\n      swap1\n      pop\n        /* \"#utility.yul\":7:84   */\n      swap2\n      swap1\n      pop\n      jump\t// out\n        /* \"#utility.yul\":90:208   */\n    tag_59:\n        /* \"#utility.yul\":177:201   */\n      tag_80\n        /* \"#utility.yul\":195:200   */\n      dup2\n        /* \"#utility.yul\":177:201   */\n      tag_58\n      jump\t// in\n    tag_80:\n        /* \"#utility.yul\":172:175   */\n      dup3\n        /* \"#utility.yul\":165:202   */\n      mstore\n        /* \"#utility.yul\":90:208   */\n      pop\n      pop\n      jump\t// out\n        /* \"#utility.yul\":214:436   */\n    tag_12:\n        /* \"#utility.yul\":307:311   */\n      0x00\n        /* \"#utility.yul\":345:347   */\n      0x20\n        /* \"#utility.yul\":334:343   */\n      dup3\n        /* \"#utility.yul\":330:348   */\n      add\n        /* \"#utility.yul\":322:348   */\n      swap1\n      pop\n        /* \"#utility.yul\":358:429   */\n      tag_82\n        /* \"#utility.yul\":426:427   */\n      0x00\n        /* \"#utility.yul\":415:424   */\n      dup4\n        /* \"#utility.yul\":411:428   */\n      add\n        /* \"#utility.yul\":402:408   */\n      dup5\n        /* \"#utility.yul\":358:429   */\n      tag_59\n      jump\t// in\n    tag_82:\n        /* \"#utility.yul\":214:436   */\n      swap3\n      swap2\n      pop\n      pop\n      jump\t// out\n        /* \"#utility.yul\":523:640   */\n    tag_61:\n        /* \"#utility.yul\":632:633   */\n      0x00\n        /* \"#utility.yul\":629:630   */\n      dup1\n        /* \"#utility.yul\":622:634   */\n      revert\n        /* \"#utility.yul\":769:891   */\n    tag_63:\n        /* \"#utility.yul\":842:866   */\n      tag_87\n        /* \"#utility.yul\":860:865   */\n      dup2\n        /* \"#utility.yul\":842:866   */\n      tag_58\n      jump\t// in\n    tag_87:\n        /* \"#utility.yul\":835:840   */\n      dup2\n        /* \"#utility.yul\":832:867   */\n      eq\n        /* \"#utility.yul\":822:885   */\n      tag_88\n      jumpi\n        /* \"#utility.yul\":881:882   */\n      0x00\n        /* \"#utility.yul\":878:879   */\n      dup1\n        /* \"#utility.yul\":871:883   */\n      revert\n        /* \"#utility.yul\":822:885   */\n    tag_88:\n        /* \"#utility.yul\":769:891   */\n      pop\n      jump\t// out\n        /* \"#utility.yul\":897:1036   */\n    tag_64:\n        /* \"#utility.yul\":943:948   */\n      0x00\n        /* \"#utility.yul\":981:987   */\n      dup2\n        /* \"#utility.yul\":968:988   */\n      calldataload\n        /* \"#utility.yul\":959:988   */\n      swap1\n      pop\n        /* \"#utility.yul\":997:1030   */\n      tag_90\n        /* \"#utility.yul\":1024:1029   */\n      dup2\n        /* \"#utility.yul\":997:1030   */\n      tag_63\n      jump\t// in\n    tag_90:\n        /* \"#utility.yul\":897:1036   */\n      swap3\n      swap2\n      pop\n      pop\n      jump\t// out\n        /* \"#utility.yul\":1042:1371   */\n    tag_20:\n        /* \"#utility.yul\":1101:1107   */\n      0x00\n        /* \"#utility.yul\":1150:1152   */\n      0x20\n        /* \"#utility.yul\":1138:1147   */\n      dup3\n        /* \"#utility.yul\":1129:1136   */\n      dup5\n        /* \"#utility.yul\":1125:1148   */\n      sub\n        /* \"#utility.yul\":1121:1153   */\n      slt\n        /* \"#utility.yul\":1118:1237   */\n      iszero\n      tag_92\n      jumpi\n        /* \"#utility.yul\":1156:1235   */\n      tag_93\n      tag_61\n      jump\t// in\n    tag_93:\n        /* \"#utility.yul\":1118:1237   */\n    tag_92:\n        /* \"#utility.yul\":1276:1277   */\n      0x00\n        /* \"#utility.yul\":1301:1354   */\n      tag_94\n        /* \"#utility.yul\":1346:1353   */\n      dup5\n        /* \"#utility.yul\":1337:1343   */\n      dup3\n        /* \"#utility.yul\":1326:1335   */\n      dup6\n        /* \"#utility.yul\":1322:1344   */\n      add\n        /* \"#utility.yul\":1301:1354   */\n      tag_64\n      jump\t// in\n    tag_94:\n        /* \"#utility.yul\":1291:1354   */\n      swap2\n      pop\n        /* \"#utility.yul\":1247:1364   */\n      pop\n        /* \"#utility.yul\":1042:1371   */\n      swap3\n      swap2\n      pop\n      pop\n      jump\t// out\n        /* \"#utility.yul\":1377:1520   */\n    tag_65:\n        /* \"#utility.yul\":1434:1439   */\n      0x00\n        /* \"#utility.yul\":1465:1471   */\n      dup2\n        /* \"#utility.yul\":1459:1472   */\n      mload\n        /* \"#utility.yul\":1450:1472   */\n      swap1\n      pop\n        /* \"#utility.yul\":1481:1514   */\n      tag_96\n        /* \"#utility.yul\":1508:1513   */\n      dup2\n        /* \"#utility.yul\":1481:1514   */\n      tag_63\n      jump\t// in\n    tag_96:\n        /* \"#utility.yul\":1377:1520   */\n      swap3\n      swap2\n      pop\n      pop\n      jump\t// out\n        /* \"#utility.yul\":1526:1877   */\n    tag_38:\n        /* \"#utility.yul\":1596:1602   */\n      0x00\n        /* \"#utility.yul\":1645:1647   */\n      0x20\n        /* \"#utility.yul\":1633:1642   */\n      dup3\n        /* \"#utility.yul\":1624:1631   */\n      dup5\n        /* \"#utility.yul\":1620:1643   */\n      sub\n        /* \"#utility.yul\":1616:1648   */\n      slt\n        /* \"#utility.yul\":1613:1732   */\n      iszero\n      tag_98\n      jumpi\n        /* \"#utility.yul\":1651:1730   */\n      tag_99\n      tag_61\n      jump\t// in\n    tag_99:\n        /* \"#utility.yul\":1613:1732   */\n    tag_98:\n        /* \"#utility.yul\":1771:1772   */\n      0x00\n        /* \"#utility.yul\":1796:1860   */\n      tag_100\n        /* \"#utility.yul\":1852:1859   */\n      dup5\n        /* \"#utility.yul\":1843:1849   */\n      dup3\n        /* \"#utility.yul\":1832:1841   */\n      dup6\n        /* \"#utility.yul\":1828:1850   */\n      add\n        /* \"#utility.yul\":1796:1860   */\n      tag_65\n      jump\t// in\n    tag_100:\n        /* \"#utility.yul\":1786:1860   */\n      swap2\n      pop\n        /* \"#utility.yul\":1742:1870   */\n      pop\n        /* \"#utility.yul\":1526:1877   */\n      swap3\n      swap2\n      pop\n      pop\n      jump\t// out\n        /* \"#utility.yul\":1883:2063   */\n    tag_66:\n        /* \"#utility.yul\":1931:2008   */\n      0x4e487b7100000000000000000000000000000000000000000000000000000000\n        /* \"#utility.yul\":1928:1929   */\n      0x00\n        /* \"#utility.yul\":1921:2009   */\n      mstore\n        /* \"#utility.yul\":2028:2032   */\n      0x11\n        /* \"#utility.yul\":2025:2026   */\n      0x04\n        /* \"#utility.yul\":2018:2033   */\n      mstore\n        /* \"#utility.yul\":2052:2056   */\n      0x24\n        /* \"#utility.yul\":2049:2050   */\n      0x00\n        /* \"#utility.yul\":2042:2057   */\n      revert\n        /* \"#utility.yul\":2069:2417   */\n    tag_42:\n        /* \"#utility.yul\":2109:2116   */\n      0x00\n        /* \"#utility.yul\":2132:2152   */\n      tag_103\n        /* \"#utility.yul\":2150:2151   */\n      dup3\n        /* \"#utility.yul\":2132:2152   */\n      tag_58\n      jump\t// in\n    tag_103:\n        /* \"#utility.yul\":2127:2152   */\n      swap2\n      pop\n        /* \"#utility.yul\":2166:2186   */\n      tag_104\n        /* \"#utility.yul\":2184:2185   */\n      dup4\n        /* \"#utility.yul\":2166:2186   */\n      tag_58\n      jump\t// in\n    tag_104:\n        /* \"#utility.yul\":2161:2186   */\n      swap3\n      pop\n        /* \"#utility.yul\":2354:2355   */\n      dup2\n        /* \"#utility.yul\":2286:2352   */\n      0xffffffffffffffffffffffffffffffffffffffffffffffffffffffffffffffff\n        /* \"#utility.yul\":2282:2356   */\n      div\n        /* \"#utility.yul\":2279:2280   */\n      dup4\n        /* \"#utility.yul\":2276:2357   */\n      gt\n        /* \"#utility.yul\":2271:2272   */\n      dup3\n        /* \"#utility.yul\":2264:2273   */\n      iszero\n        /* \"#utility.yul\":2257:2274   */\n      iszero\n        /* \"#utility.yul\":2253:2358   */\n      and\n        /* \"#utility.yul\":2250:2381   */\n      iszero\n      tag_105\n      jumpi\n        /* \"#utility.yul\":2361:2379   */\n      tag_106\n      tag_66\n      jump\t// in\n    tag_106:\n        /* \"#utility.yul\":2250:2381   */\n    tag_105:\n        /* \"#utility.yul\":2409:2410   */\n      dup3\n        /* \"#utility.yul\":2406:2407   */\n      dup3\n        /* \"#utility.yul\":2402:2411   */\n      mul\n        /* \"#utility.yul\":2391:2411   */\n      swap1\n      pop\n        /* \"#utility.yul\":2069:2417   */\n      swap3\n      swap2\n      pop\n      pop\n      jump\t// out\n        /* \"#utility.yul\":2423:2603   */\n    tag_67:\n        /* \"#utility.yul\":2471:2548   */\n      0x4e487b7100000000000000000000000000000000000000000000000000000000\n        /* \"#utility.yul\":2468:2469   */\n      0x00\n        /* \"#utility.yul\":2461:2549   */\n      mstore\n        /* \"#utility.yul\":2568:2572   */\n      0x12\n        /* \"#utility.yul\":2565:2566   */\n      0x04\n        /* \"#utility.yul\":2558:2573   */\n      mstore\n        /* \"#utility.yul\":2592:2596   */\n      0x24\n        /* \"#utility.yul\":2589:2590   */\n      0x00\n        /* \"#utility.yul\":2582:2597   */\n      revert\n        /* \"#utility.yul\":2609:2794   */\n    tag_44:\n        /* \"#utility.yul\":2649:2650   */\n      0x00\n        /* \"#utility.yul\":2666:2686   */\n      tag_109\n        /* \"#utility.yul\":2684:2685   */\n      dup3\n        /* \"#utility.yul\":2666:2686   */\n      tag_58\n      jump\t// in\n    tag_109:\n        /* \"#utility.yul\":2661:2686   */\n      swap2\n      pop\n        /* \"#utility.yul\":2700:2720   */\n      tag_110\n        /* \"#utility.yul\":2718:2719   */\n      dup4\n        /* \"#utility.yul\":2700:2720   */\n      tag_58\n      jump\t// in\n    tag_110:\n        /* \"#utility.yul\":2695:2720   */\n      swap3\n      pop\n        /* \"#utility.yul\":2739:2740   */\n      dup3\n        /* \"#utility.yul\":2729:2764   */\n      tag_111\n      jumpi\n        /* \"#utility.yul\":2744:2762   */\n      tag_112\n      tag_67\n      jump\t// in\n    tag_112:\n        /* \"#utility.yul\":2729:2764   */\n    tag_111:\n        /* \"#utility.yul\":2786:2787   */\n      dup3\n        /* \"#utility.yul\":2783:2784   */\n      dup3\n        /* \"#utility.yul\":2779:2788   */\n      div\n        /* \"#utility.yul\":2774:2788   */\n      swap1\n      pop\n        /* \"#utility.yul\":2609:2794   */\n      swap3\n      swap2\n      pop\n      pop\n      jump\t// out\n        /* \"#utility.yul\":2800:2905   */\n    tag_68:\n        /* \"#utility.yul\":2836:2843   */\n      0x00\n        /* \"#utility.yul\":2876:2898   */\n      0xffffffffffffffffffff\n        /* \"#utility.yul\":2869:2874   */\n      dup3\n        /* \"#utility.yul\":2865:2899   */\n      and\n        /* \"#utility.yul\":2854:2899   */\n      swap1\n      pop\n        /* \"#utility.yul\":2800:2905   */\n      swap2\n      swap1\n      pop\n      jump\t// out\n        /* \"#utility.yul\":2911:3031   */\n    tag_69:\n        /* \"#utility.yul\":2983:3006   */\n      tag_115\n        /* \"#utility.yul\":3000:3005   */\n      dup2\n        /* \"#utility.yul\":2983:3006   */\n      tag_68\n      jump\t// in\n    tag_115:\n        /* \"#utility.yul\":2976:2981   */\n      dup2\n        /* \"#utility.yul\":2973:3007   */\n      eq\n        /* \"#utility.yul\":2963:3025   */\n      tag_116\n      jumpi\n        /* \"#utility.yul\":3021:3022   */\n      0x00\n        /* \"#utility.yul\":3018:3019   */\n      dup1\n        /* \"#utility.yul\":3011:3023   */\n      revert\n        /* \"#utility.yul\":2963:3025   */\n    tag_116:\n        /* \"#utility.yul\":2911:3031   */\n      pop\n      jump\t// out\n        /* \"#utility.yul\":3037:3178   */\n    tag_70:\n        /* \"#utility.yul\":3093:3098   */\n      0x00\n        /* \"#utility.yul\":3124:3130   */\n      dup2\n        /* \"#utility.yul\":3118:3131   */\n      mload\n        /* \"#utility.yul\":3109:3131   */\n      swap1\n      pop\n        /* \"#utility.yul\":3140:3172   */\n      tag_118\n        /* \"#utility.yul\":3166:3171   */\n      dup2\n        /* \"#utility.yul\":3140:3172   */\n      tag_69\n      jump\t// in\n    tag_118:\n        /* \"#utility.yul\":3037:3178   */\n      swap3\n      swap2\n      pop\n      pop\n      jump\t// out\n        /* \"#utility.yul\":3184:3260   */\n    tag_71:\n        /* \"#utility.yul\":3220:3227   */\n      0x00\n        /* \"#utility.yul\":3249:3254   */\n      dup2\n        /* \"#utility.yul\":3238:3254   */\n      swap1\n      pop\n        /* \"#utility.yul\":3184:3260   */\n      swap2\n      swap1\n      pop\n      jump\t// out\n        /* \"#utility.yul\":3266:3386   */\n    tag_72:\n        /* \"#utility.yul\":3338:3361   */\n      tag_121\n        /* \"#utility.yul\":3355:3360   */\n      dup2\n        /* \"#utility.yul\":3338:3361   */\n      tag_71\n      jump\t// in\n    tag_121:\n        /* \"#utility.yul\":3331:3336   */\n      dup2\n        /* \"#utility.yul\":3328:3362   */\n      eq\n        /* \"#utility.yul\":3318:3380   */\n      tag_122\n      jumpi\n        /* \"#utility.yul\":3376:3377   */\n      0x00\n        /* \"#utility.yul\":3373:3374   */\n      dup1\n        /* \"#utility.yul\":3366:3378   */\n      revert\n        /* \"#utility.yul\":3318:3380   */\n    tag_122:\n        /* \"#utility.yul\":3266:3386   */\n      pop\n      jump\t// out\n        /* \"#utility.yul\":3392:3533   */\n    tag_73:\n        /* \"#utility.yul\":3448:3453   */\n      0x00\n        /* \"#utility.yul\":3479:3485   */\n      dup2\n        /* \"#utility.yul\":3473:3486   */\n      mload\n        /* \"#utility.yul\":3464:3486   */\n      swap1\n      pop\n        /* \"#utility.yul\":3495:3527   */\n      tag_124\n        /* \"#utility.yul\":3521:3526   */\n      dup2\n        /* \"#utility.yul\":3495:3527   */\n      tag_72\n      jump\t// in\n    tag_124:\n        /* \"#utility.yul\":3392:3533   */\n      swap3\n      swap2\n      pop\n      pop\n      jump\t// out\n        /* \"#utility.yul\":3539:4510   */\n    tag_50:\n        /* \"#utility.yul\":3642:3648   */\n      0x00\n        /* \"#utility.yul\":3650:3656   */\n      dup1\n        /* \"#utility.yul\":3658:3664   */\n      0x00\n        /* \"#utility.yul\":3666:3672   */\n      dup1\n        /* \"#utility.yul\":3674:3680   */\n      0x00\n        /* \"#utility.yul\":3723:3726   */\n      0xa0\n        /* \"#utility.yul\":3711:3720   */\n      dup7\n        /* \"#utility.yul\":3702:3709   */\n      dup9\n        /* \"#utility.yul\":3698:3721   */\n      sub\n        /* \"#utility.yul\":3694:3727   */\n      slt\n        /* \"#utility.yul\":3691:3811   */\n      iszero\n      tag_126\n      jumpi\n        /* \"#utility.yul\":3730:3809   */\n      tag_127\n      tag_61\n      jump\t// in\n    tag_127:\n        /* \"#utility.yul\":3691:3811   */\n    tag_126:\n        /* \"#utility.yul\":3850:3851   */\n      0x00\n        /* \"#utility.yul\":3875:3938   */\n      tag_128\n        /* \"#utility.yul\":3930:3937   */\n      dup9\n        /* \"#utility.yul\":3921:3927   */\n      dup3\n        /* \"#utility.yul\":3910:3919   */\n      dup10\n        /* \"#utility.yul\":3906:3928   */\n      add\n        /* \"#utility.yul\":3875:3938   */\n      tag_70\n      jump\t// in\n    tag_128:\n        /* \"#utility.yul\":3865:3938   */\n      swap6\n      pop\n        /* \"#utility.yul\":3821:3948   */\n      pop\n        /* \"#utility.yul\":3987:3989   */\n      0x20\n        /* \"#utility.yul\":4013:4076   */\n      tag_129\n        /* \"#utility.yul\":4068:4075   */\n      dup9\n        /* \"#utility.yul\":4059:4065   */\n      dup3\n        /* \"#utility.yul\":4048:4057   */\n      dup10\n        /* \"#utility.yul\":4044:4066   */\n      add\n        /* \"#utility.yul\":4013:4076   */\n      tag_73\n      jump\t// in\n    tag_129:\n        /* \"#utility.yul\":4003:4076   */\n      swap5\n      pop\n        /* \"#utility.yul\":3958:4086   */\n      pop\n        /* \"#utility.yul\":4125:4127   */\n      0x40\n        /* \"#utility.yul\":4151:4215   */\n      tag_130\n        /* \"#utility.yul\":4207:4214   */\n      dup9\n        /* \"#utility.yul\":4198:4204   */\n      dup3\n        /* \"#utility.yul\":4187:4196   */\n      dup10\n        /* \"#utility.yul\":4183:4205   */\n      add\n        /* \"#utility.yul\":4151:4215   */\n      tag_65\n      jump\t// in\n    tag_130:\n        /* \"#utility.yul\":4141:4215   */\n      swap4\n      pop\n        /* \"#utility.yul\":4096:4225   */\n      pop\n        /* \"#utility.yul\":4264:4266   */\n      0x60\n        /* \"#utility.yul\":4290:4354   */\n      tag_131\n        /* \"#utility.yul\":4346:4353   */\n      dup9\n        /* \"#utility.yul\":4337:4343   */\n      dup3\n        /* \"#utility.yul\":4326:4335   */\n      dup10\n        /* \"#utility.yul\":4322:4344   */\n      add\n        /* \"#utility.yul\":4290:4354   */\n      tag_65\n      jump\t// in\n    tag_131:\n        /* \"#utility.yul\":4280:4354   */\n      swap3\n      pop\n        /* \"#utility.yul\":4235:4364   */\n      pop\n        /* \"#utility.yul\":4403:4406   */\n      0x80\n        /* \"#utility.yul\":4430:4493   */\n      tag_132\n        /* \"#utility.yul\":4485:4492   */\n      dup9\n        /* \"#utility.yul\":4476:4482   */\n      dup3\n        /* \"#utility.yul\":4465:4474   */\n      dup10\n        /* \"#utility.yul\":4461:4483   */\n      add\n        /* \"#utility.yul\":4430:4493   */\n      tag_70\n      jump\t// in\n    tag_132:\n        /* \"#utility.yul\":4420:4493   */\n      swap2\n      pop\n        /* \"#utility.yul\":4374:4503   */\n      pop\n        /* \"#utility.yul\":3539:4510   */\n      swap3\n      swap6\n      pop\n      swap3\n      swap6\n      swap1\n      swap4\n      pop\n      jump\t// out\n        /* \"#utility.yul\":4516:5507   */\n    tag_52:\n        /* \"#utility.yul\":4555:4562   */\n      0x00\n        /* \"#utility.yul\":4578:4597   */\n      tag_134\n        /* \"#utility.yul\":4595:4596   */\n      dup3\n        /* \"#utility.yul\":4578:4597   */\n      tag_71\n      jump\t// in\n    tag_134:\n        /* \"#utility.yul\":4573:4597   */\n      swap2\n      pop\n        /* \"#utility.yul\":4611:4630   */\n      tag_135\n        /* \"#utility.yul\":4628:4629   */\n      dup4\n        /* \"#utility.yul\":4611:4630   */\n      tag_71\n      jump\t// in\n    tag_135:\n        /* \"#utility.yul\":4606:4630   */\n      swap3\n      pop\n        /* \"#utility.yul\":4812:4813   */\n      dup3\n        /* \"#utility.yul\":4744:4810   */\n      0x7fffffffffffffffffffffffffffffffffffffffffffffffffffffffffffffff\n        /* \"#utility.yul\":4740:4814   */\n      div\n        /* \"#utility.yul\":4737:4738   */\n      dup3\n        /* \"#utility.yul\":4734:4815   */\n      gt\n        /* \"#utility.yul\":4729:4730   */\n      0x00\n        /* \"#utility.yul\":4726:4727   */\n      dup5\n        /* \"#utility.yul\":4722:4731   */\n      sgt\n        /* \"#utility.yul\":4718:4719   */\n      0x00\n        /* \"#utility.yul\":4715:4716   */\n      dup5\n        /* \"#utility.yul\":4711:4720   */\n      sgt\n        /* \"#utility.yul\":4707:4732   */\n      and\n        /* \"#utility.yul\":4703:4816   */\n      and\n        /* \"#utility.yul\":4700:4839   */\n      iszero\n      tag_136\n      jumpi\n        /* \"#utility.yul\":4819:4837   */\n      tag_137\n      tag_66\n      jump\t// in\n    tag_137:\n        /* \"#utility.yul\":4700:4839   */\n    tag_136:\n        /* \"#utility.yul\":5023:5024   */\n      dup2\n        /* \"#utility.yul\":4955:5021   */\n      0x8000000000000000000000000000000000000000000000000000000000000000\n        /* \"#utility.yul\":4950:5025   */\n      sdiv\n        /* \"#utility.yul\":4947:4948   */\n      dup4\n        /* \"#utility.yul\":4943:5026   */\n      slt\n        /* \"#utility.yul\":4938:4939   */\n      0x00\n        /* \"#utility.yul\":4935:4936   */\n      dup5\n        /* \"#utility.yul\":4931:4940   */\n      slt\n        /* \"#utility.yul\":4927:4928   */\n      0x00\n        /* \"#utility.yul\":4924:4925   */\n      dup5\n        /* \"#utility.yul\":4920:4929   */\n      sgt\n        /* \"#utility.yul\":4916:4941   */\n      and\n        /* \"#utility.yul\":4912:5027   */\n      and\n        /* \"#utility.yul\":4909:5050   */\n      iszero\n      tag_138\n      jumpi\n        /* \"#utility.yul\":5030:5048   */\n      tag_139\n      tag_66\n      jump\t// in\n    tag_139:\n        /* \"#utility.yul\":4909:5050   */\n    tag_138:\n        /* \"#utility.yul\":5234:5235   */\n      dup3\n        /* \"#utility.yul\":5166:5232   */\n      0x8000000000000000000000000000000000000000000000000000000000000000\n        /* \"#utility.yul\":5161:5236   */\n      sdiv\n        /* \"#utility.yul\":5158:5159   */\n      dup3\n        /* \"#utility.yul\":5154:5237   */\n      slt\n        /* \"#utility.yul\":5149:5150   */\n      0x00\n        /* \"#utility.yul\":5146:5147   */\n      dup5\n        /* \"#utility.yul\":5142:5151   */\n      sgt\n        /* \"#utility.yul\":5138:5139   */\n      0x00\n        /* \"#utility.yul\":5135:5136   */\n      dup5\n        /* \"#utility.yul\":5131:5140   */\n      slt\n        /* \"#utility.yul\":5127:5152   */\n      and\n        /* \"#utility.yul\":5123:5238   */\n      and\n        /* \"#utility.yul\":5120:5261   */\n      iszero\n      tag_140\n      jumpi\n        /* \"#utility.yul\":5241:5259   */\n      tag_141\n      tag_66\n      jump\t// in\n    tag_141:\n        /* \"#utility.yul\":5120:5261   */\n    tag_140:\n        /* \"#utility.yul\":5444:5445   */\n      dup3\n        /* \"#utility.yul\":5376:5442   */\n      0x7fffffffffffffffffffffffffffffffffffffffffffffffffffffffffffffff\n        /* \"#utility.yul\":5371:5446   */\n      sdiv\n        /* \"#utility.yul\":5368:5369   */\n      dup3\n        /* \"#utility.yul\":5364:5447   */\n      slt\n        /* \"#utility.yul\":5359:5360   */\n      0x00\n        /* \"#utility.yul\":5356:5357   */\n      dup5\n        /* \"#utility.yul\":5352:5361   */\n      slt\n        /* \"#utility.yul\":5348:5349   */\n      0x00\n        /* \"#utility.yul\":5345:5346   */\n      dup5\n        /* \"#utility.yul\":5341:5350   */\n      slt\n        /* \"#utility.yul\":5337:5362   */\n      and\n        /* \"#utility.yul\":5333:5448   */\n      and\n        /* \"#utility.yul\":5330:5471   */\n      iszero\n      tag_142\n      jumpi\n        /* \"#utility.yul\":5451:5469   */\n      tag_143\n      tag_66\n      jump\t// in\n    tag_143:\n        /* \"#utility.yul\":5330:5471   */\n    tag_142:\n        /* \"#utility.yul\":5499:5500   */\n      dup3\n        /* \"#utility.yul\":5496:5497   */\n      dup3\n        /* \"#utility.yul\":5492:5501   */\n      mul\n        /* \"#utility.yul\":5481:5501   */\n      swap1\n      pop\n        /* \"#utility.yul\":4516:5507   */\n      swap3\n      swap2\n      pop\n      pop\n      jump\t// out\n        /* \"#utility.yul\":5513:5682   */\n    tag_74:\n        /* \"#utility.yul\":5597:5608   */\n      0x00\n        /* \"#utility.yul\":5631:5637   */\n      dup3\n        /* \"#utility.yul\":5626:5629   */\n      dup3\n        /* \"#utility.yul\":5619:5638   */\n      mstore\n        /* \"#utility.yul\":5671:5675   */\n      0x20\n        /* \"#utility.yul\":5666:5669   */\n      dup3\n        /* \"#utility.yul\":5662:5676   */\n      add\n        /* \"#utility.yul\":5647:5676   */\n      swap1\n      pop\n        /* \"#utility.yul\":5513:5682   */\n      swap3\n      swap2\n      pop\n      pop\n      jump\t// out\n        /* \"#utility.yul\":5688:5855   */\n    tag_75:\n        /* \"#utility.yul\":5828:5847   */\n      0x4469646e742073656e6420656e6f756768000000000000000000000000000000\n        /* \"#utility.yul\":5824:5825   */\n      0x00\n        /* \"#utility.yul\":5816:5822   */\n      dup3\n        /* \"#utility.yul\":5812:5826   */\n      add\n        /* \"#utility.yul\":5805:5848   */\n      mstore\n        /* \"#utility.yul\":5688:5855   */\n      pop\n      jump\t// out\n        /* \"#utility.yul\":5861:6227   */\n    tag_76:\n        /* \"#utility.yul\":6003:6006   */\n      0x00\n        /* \"#utility.yul\":6024:6091   */\n      tag_147\n        /* \"#utility.yul\":6088:6090   */\n      0x11\n        /* \"#utility.yul\":6083:6086   */\n      dup4\n        /* \"#utility.yul\":6024:6091   */\n      tag_74\n      jump\t// in\n    tag_147:\n        /* \"#utility.yul\":6017:6091   */\n      swap2\n      pop\n        /* \"#utility.yul\":6100:6193   */\n      tag_148\n        /* \"#utility.yul\":6189:6192   */\n      dup3\n        /* \"#utility.yul\":6100:6193   */\n      tag_75\n      jump\t// in\n    tag_148:\n        /* \"#utility.yul\":6218:6220   */\n      0x20\n        /* \"#utility.yul\":6213:6216   */\n      dup3\n        /* \"#utility.yul\":6209:6221   */\n      add\n        /* \"#utility.yul\":6202:6221   */\n      swap1\n      pop\n        /* \"#utility.yul\":5861:6227   */\n      swap2\n      swap1\n      pop\n      jump\t// out\n        /* \"#utility.yul\":6233:6652   */\n    tag_57:\n        /* \"#utility.yul\":6399:6403   */\n      0x00\n        /* \"#utility.yul\":6437:6439   */\n      0x20\n        /* \"#utility.yul\":6426:6435   */\n      dup3\n        /* \"#utility.yul\":6422:6440   */\n      add\n        /* \"#utility.yul\":6414:6440   */\n      swap1\n      pop\n        /* \"#utility.yul\":6486:6495   */\n      dup2\n        /* \"#utility.yul\":6480:6484   */\n      dup2\n        /* \"#utility.yul\":6476:6496   */\n      sub\n        /* \"#utility.yul\":6472:6473   */\n      0x00\n        /* \"#utility.yul\":6461:6470   */\n      dup4\n        /* \"#utility.yul\":6457:6474   */\n      add\n        /* \"#utility.yul\":6450:6497   */\n      mstore\n        /* \"#utility.yul\":6514:6645   */\n      tag_150\n        /* \"#utility.yul\":6640:6644   */\n      dup2\n        /* \"#utility.yul\":6514:6645   */\n      tag_76\n      jump\t// in\n    tag_150:\n        /* \"#utility.yul\":6506:6645   */\n      swap1\n      pop\n        /* \"#utility.yul\":6233:6652   */\n      swap2\n      swap1\n      pop\n      jump\t// out\n\n    auxdata: 0xa26469706673582212208a6aa1973436eccbef5e1d23097bcd51c35d25965dda6ab29be2609236fa915964736f6c63430008080033\n}\n",
				"bytecode": {
					"linkReferences": {},
					"object": "60806040526802b5e3af16b188000060015534801561001d57600080fd5b506107b28061002d6000396000f3fe6080604052600436106100555760003560e01c8063098de8201461005a5780630d8e6e2c146100855780636e5b6b28146100b05780638381f58a146100ed57806398d5fdca14610118578063b60d428814610143575b600080fd5b34801561006657600080fd5b5061006f61014d565b60405161007c9190610351565b60405180910390f35b34801561009157600080fd5b5061009a610153565b6040516100a79190610351565b60405180910390f35b3480156100bc57600080fd5b506100d760048036038101906100d2919061039d565b6101f1565b6040516100e49190610351565b60405180910390f35b3480156100f957600080fd5b5061010261022b565b60405161010f9190610351565b60405180910390f35b34801561012457600080fd5b5061012d610231565b60405161013a9190610351565b60405180910390f35b61014b6102e9565b005b60015481565b600080738a753747a1fa494ec906ce90e9f37563a8af630e90508073ffffffffffffffffffffffffffffffffffffffff166354fd4d506040518163ffffffff1660e01b815260040160206040518083038186803b1580156101b357600080fd5b505afa1580156101c7573d6000803e3d6000fd5b505050506040513d601f19601f820116820180604052508101906101eb91906103df565b91505090565b6000806101fc610231565b90506000670de0b6b3a76400008483610215919061043b565b61021f91906104c4565b90508092505050919050565b60005481565b600080738a753747a1fa494ec906ce90e9f37563a8af630e905060008173ffffffffffffffffffffffffffffffffffffffff1663feaf968c6040518163ffffffff1660e01b815260040160a06040518083038186803b15801561029357600080fd5b505afa1580156102a7573d6000803e3d6000fd5b505050506040513d601f19601f820116820180604052508101906102cb919061056d565b5050509150506402540be400816102e291906105e8565b9250505090565b6001546102f5346101f1565b1015610336576040517f08c379a000000000000000000000000000000000000000000000000000000000815260040161032d9061075c565b60405180910390fd5b565b6000819050919050565b61034b81610338565b82525050565b60006020820190506103666000830184610342565b92915050565b600080fd5b61037a81610338565b811461038557600080fd5b50565b60008135905061039781610371565b92915050565b6000602082840312156103b3576103b261036c565b5b60006103c184828501610388565b91505092915050565b6000815190506103d981610371565b92915050565b6000602082840312156103f5576103f461036c565b5b6000610403848285016103ca565b91505092915050565b7f4e487b7100000000000000000000000000000000000000000000000000000000600052601160045260246000fd5b600061044682610338565b915061045183610338565b9250817fffffffffffffffffffffffffffffffffffffffffffffffffffffffffffffffff048311821515161561048a5761048961040c565b5b828202905092915050565b7f4e487b7100000000000000000000000000000000000000000000000000000000600052601260045260246000fd5b60006104cf82610338565b91506104da83610338565b9250826104ea576104e9610495565b5b828204905092915050565b600069ffffffffffffffffffff82169050919050565b610514816104f5565b811461051f57600080fd5b50565b6000815190506105318161050b565b92915050565b6000819050919050565b61054a81610537565b811461055557600080fd5b50565b60008151905061056781610541565b92915050565b600080600080600060a086880312156105895761058861036c565b5b600061059788828901610522565b95505060206105a888828901610558565b94505060406105b9888289016103ca565b93505060606105ca888289016103ca565b92505060806105db88828901610522565b9150509295509295909350565b60006105f382610537565b91506105fe83610537565b9250827f7fffffffffffffffffffffffffffffffffffffffffffffffffffffffffffffff048211600084136000841316161561063d5761063c61040c565b5b817f8000000000000000000000000000000000000000000000000000000000000000058312600084126000841316161561067a5761067961040c565b5b827f800000000000000000000000000000000000000000000000000000000000000005821260008413600084121616156106b7576106b661040c565b5b827f7fffffffffffffffffffffffffffffffffffffffffffffffffffffffffffffff05821260008412600084121616156106f4576106f361040c565b5b828202905092915050565b600082825260208201905092915050565b7f4469646e742073656e6420656e6f756768000000000000000000000000000000600082015250565b60006107466011836106ff565b915061075182610710565b602082019050919050565b6000602082019050818103600083015261077581610739565b905091905056fea26469706673582212208a6aa1973436eccbef5e1d23097bcd51c35d25965dda6ab29be2609236fa915964736f6c63430008080033",
					"opcodes": "PUSH1 0x80 PUSH1 0x40 MSTORE PUSH9 0x2B5E3AF16B1880000 PUSH1 0x1 SSTORE CALLVALUE DUP1 ISZERO PUSH2 0x1D JUMPI PUSH1 0x0 DUP1 REVERT JUMPDEST POP PUSH2 0x7B2 DUP1 PUSH2 0x2D PUSH1 0x0 CODECOPY PUSH1 0x0 RETURN INVALID PUSH1 0x80 PUSH1 0x40 MSTORE PUSH1 0x4 CALLDATASIZE LT PUSH2 0x55 JUMPI PUSH1 0x0 CALLDATALOAD PUSH1 0xE0 SHR DUP1 PUSH4 0x98DE820 EQ PUSH2 0x5A JUMPI DUP1 PUSH4 0xD8E6E2C EQ PUSH2 0x85 JUMPI DUP1 PUSH4 0x6E5B6B28 EQ PUSH2 0xB0 JUMPI DUP1 PUSH4 0x8381F58A EQ PUSH2 0xED JUMPI DUP1 PUSH4 0x98D5FDCA EQ PUSH2 0x118 JUMPI DUP1 PUSH4 0xB60D4288 EQ PUSH2 0x143 JUMPI JUMPDEST PUSH1 0x0 DUP1 REVERT JUMPDEST CALLVALUE DUP1 ISZERO PUSH2 0x66 JUMPI PUSH1 0x0 DUP1 REVERT JUMPDEST POP PUSH2 0x6F PUSH2 0x14D JUMP JUMPDEST PUSH1 0x40 MLOAD PUSH2 0x7C SWAP2 SWAP1 PUSH2 0x351 JUMP JUMPDEST PUSH1 0x40 MLOAD DUP1 SWAP2 SUB SWAP1 RETURN JUMPDEST CALLVALUE DUP1 ISZERO PUSH2 0x91 JUMPI PUSH1 0x0 DUP1 REVERT JUMPDEST POP PUSH2 0x9A PUSH2 0x153 JUMP JUMPDEST PUSH1 0x40 MLOAD PUSH2 0xA7 SWAP2 SWAP1 PUSH2 0x351 JUMP JUMPDEST PUSH1 0x40 MLOAD DUP1 SWAP2 SUB SWAP1 RETURN JUMPDEST CALLVALUE DUP1 ISZERO PUSH2 0xBC JUMPI PUSH1 0x0 DUP1 REVERT JUMPDEST POP PUSH2 0xD7 PUSH1 0x4 DUP1 CALLDATASIZE SUB DUP2 ADD SWAP1 PUSH2 0xD2 SWAP2 SWAP1 PUSH2 0x39D JUMP JUMPDEST PUSH2 0x1F1 JUMP JUMPDEST PUSH1 0x40 MLOAD PUSH2 0xE4 SWAP2 SWAP1 PUSH2 0x351 JUMP JUMPDEST PUSH1 0x40 MLOAD DUP1 SWAP2 SUB SWAP1 RETURN JUMPDEST CALLVALUE DUP1 ISZERO PUSH2 0xF9 JUMPI PUSH1 0x0 DUP1 REVERT JUMPDEST POP PUSH2 0x102 PUSH2 0x22B JUMP JUMPDEST PUSH1 0x40 MLOAD PUSH2 0x10F SWAP2 SWAP1 PUSH2 0x351 JUMP JUMPDEST PUSH1 0x40 MLOAD DUP1 SWAP2 SUB SWAP1 RETURN JUMPDEST CALLVALUE DUP1 ISZERO PUSH2 0x124 JUMPI PUSH1 0x0 DUP1 REVERT JUMPDEST POP PUSH2 0x12D PUSH2 0x231 JUMP JUMPDEST PUSH1 0x40 MLOAD PUSH2 0x13A SWAP2 SWAP1 PUSH2 0x351 JUMP JUMPDEST PUSH1 0x40 MLOAD DUP1 SWAP2 SUB SWAP1 RETURN JUMPDEST PUSH2 0x14B PUSH2 0x2E9 JUMP JUMPDEST STOP JUMPDEST PUSH1 0x1 SLOAD DUP2 JUMP JUMPDEST PUSH1 0x0 DUP1 PUSH20 0x8A753747A1FA494EC906CE90E9F37563A8AF630E SWAP1 POP DUP1 PUSH20 0xFFFFFFFFFFFFFFFFFFFFFFFFFFFFFFFFFFFFFFFF AND PUSH4 0x54FD4D50 PUSH1 0x40 MLOAD DUP2 PUSH4 0xFFFFFFFF AND PUSH1 0xE0 SHL DUP2 MSTORE PUSH1 0x4 ADD PUSH1 0x20 PUSH1 0x40 MLOAD DUP1 DUP4 SUB DUP2 DUP7 DUP1 EXTCODESIZE ISZERO DUP1 ISZERO PUSH2 0x1B3 JUMPI PUSH1 0x0 DUP1 REVERT JUMPDEST POP GAS STATICCALL ISZERO DUP1 ISZERO PUSH2 0x1C7 JUMPI RETURNDATASIZE PUSH1 0x0 DUP1 RETURNDATACOPY RETURNDATASIZE PUSH1 0x0 REVERT JUMPDEST POP POP POP POP PUSH1 0x40 MLOAD RETURNDATASIZE PUSH1 0x1F NOT PUSH1 0x1F DUP3 ADD AND DUP3 ADD DUP1 PUSH1 0x40 MSTORE POP DUP2 ADD SWAP1 PUSH2 0x1EB SWAP2 SWAP1 PUSH2 0x3DF JUMP JUMPDEST SWAP2 POP POP SWAP1 JUMP JUMPDEST PUSH1 0x0 DUP1 PUSH2 0x1FC PUSH2 0x231 JUMP JUMPDEST SWAP1 POP PUSH1 0x0 PUSH8 0xDE0B6B3A7640000 DUP5 DUP4 PUSH2 0x215 SWAP2 SWAP1 PUSH2 0x43B JUMP JUMPDEST PUSH2 0x21F SWAP2 SWAP1 PUSH2 0x4C4 JUMP JUMPDEST SWAP1 POP DUP1 SWAP3 POP POP POP SWAP2 SWAP1 POP JUMP JUMPDEST PUSH1 0x0 SLOAD DUP2 JUMP JUMPDEST PUSH1 0x0 DUP1 PUSH20 0x8A753747A1FA494EC906CE90E9F37563A8AF630E SWAP1 POP PUSH1 0x0 DUP2 PUSH20 0xFFFFFFFFFFFFFFFFFFFFFFFFFFFFFFFFFFFFFFFF AND PUSH4 0xFEAF968C PUSH1 0x40 MLOAD DUP2 PUSH4 0xFFFFFFFF AND PUSH1 0xE0 SHL DUP2 MSTORE PUSH1 0x4 ADD PUSH1 0xA0 PUSH1 0x40 MLOAD DUP1 DUP4 SUB DUP2 DUP7 DUP1 EXTCODESIZE ISZERO DUP1 ISZERO PUSH2 0x293 JUMPI PUSH1 0x0 DUP1 REVERT JUMPDEST POP GAS STATICCALL ISZERO DUP1 ISZERO PUSH2 0x2A7 JUMPI RETURNDATASIZE PUSH1 0x0 DUP1 RETURNDATACOPY RETURNDATASIZE PUSH1 0x0 REVERT JUMPDEST POP POP POP POP PUSH1 0x40 MLOAD RETURNDATASIZE PUSH1 0x1F NOT PUSH1 0x1F DUP3 ADD AND DUP3 ADD DUP1 PUSH1 0x40 MSTORE POP DUP2 ADD SWAP1 PUSH2 0x2CB SWAP2 SWAP1 PUSH2 0x56D JUMP JUMPDEST POP POP POP SWAP2 POP POP PUSH5 0x2540BE400 DUP2 PUSH2 0x2E2 SWAP2 SWAP1 PUSH2 0x5E8 JUMP JUMPDEST SWAP3 POP POP POP SWAP1 JUMP JUMPDEST PUSH1 0x1 SLOAD PUSH2 0x2F5 CALLVALUE PUSH2 0x1F1 JUMP JUMPDEST LT ISZERO PUSH2 0x336 JUMPI PUSH1 0x40 MLOAD PUSH32 0x8C379A000000000000000000000000000000000000000000000000000000000 DUP2 MSTORE PUSH1 0x4 ADD PUSH2 0x32D SWAP1 PUSH2 0x75C JUMP JUMPDEST PUSH1 0x40 MLOAD DUP1 SWAP2 SUB SWAP1 REVERT JUMPDEST JUMP JUMPDEST PUSH1 0x0 DUP2 SWAP1 POP SWAP2 SWAP1 POP JUMP JUMPDEST PUSH2 0x34B DUP2 PUSH2 0x338 JUMP JUMPDEST DUP3 MSTORE POP POP JUMP JUMPDEST PUSH1 0x0 PUSH1 0x20 DUP3 ADD SWAP1 POP PUSH2 0x366 PUSH1 0x0 DUP4 ADD DUP5 PUSH2 0x342 JUMP JUMPDEST SWAP3 SWAP2 POP POP JUMP JUMPDEST PUSH1 0x0 DUP1 REVERT JUMPDEST PUSH2 0x37A DUP2 PUSH2 0x338 JUMP JUMPDEST DUP2 EQ PUSH2 0x385 JUMPI PUSH1 0x0 DUP1 REVERT JUMPDEST POP JUMP JUMPDEST PUSH1 0x0 DUP2 CALLDATALOAD SWAP1 POP PUSH2 0x397 DUP2 PUSH2 0x371 JUMP JUMPDEST SWAP3 SWAP2 POP POP JUMP JUMPDEST PUSH1 0x0 PUSH1 0x20 DUP3 DUP5 SUB SLT ISZERO PUSH2 0x3B3 JUMPI PUSH2 0x3B2 PUSH2 0x36C JUMP JUMPDEST JUMPDEST PUSH1 0x0 PUSH2 0x3C1 DUP5 DUP3 DUP6 ADD PUSH2 0x388 JUMP JUMPDEST SWAP2 POP POP SWAP3 SWAP2 POP POP JUMP JUMPDEST PUSH1 0x0 DUP2 MLOAD SWAP1 POP PUSH2 0x3D9 DUP2 PUSH2 0x371 JUMP JUMPDEST SWAP3 SWAP2 POP POP JUMP JUMPDEST PUSH1 0x0 PUSH1 0x20 DUP3 DUP5 SUB SLT ISZERO PUSH2 0x3F5 JUMPI PUSH2 0x3F4 PUSH2 0x36C JUMP JUMPDEST JUMPDEST PUSH1 0x0 PUSH2 0x403 DUP5 DUP3 DUP6 ADD PUSH2 0x3CA JUMP JUMPDEST SWAP2 POP POP SWAP3 SWAP2 POP POP JUMP JUMPDEST PUSH32 0x4E487B7100000000000000000000000000000000000000000000000000000000 PUSH1 0x0 MSTORE PUSH1 0x11 PUSH1 0x4 MSTORE PUSH1 0x24 PUSH1 0x0 REVERT JUMPDEST PUSH1 0x0 PUSH2 0x446 DUP3 PUSH2 0x338 JUMP JUMPDEST SWAP2 POP PUSH2 0x451 DUP4 PUSH2 0x338 JUMP JUMPDEST SWAP3 POP DUP2 PUSH32 0xFFFFFFFFFFFFFFFFFFFFFFFFFFFFFFFFFFFFFFFFFFFFFFFFFFFFFFFFFFFFFFFF DIV DUP4 GT DUP3 ISZERO ISZERO AND ISZERO PUSH2 0x48A JUMPI PUSH2 0x489 PUSH2 0x40C JUMP JUMPDEST JUMPDEST DUP3 DUP3 MUL SWAP1 POP SWAP3 SWAP2 POP POP JUMP JUMPDEST PUSH32 0x4E487B7100000000000000000000000000000000000000000000000000000000 PUSH1 0x0 MSTORE PUSH1 0x12 PUSH1 0x4 MSTORE PUSH1 0x24 PUSH1 0x0 REVERT JUMPDEST PUSH1 0x0 PUSH2 0x4CF DUP3 PUSH2 0x338 JUMP JUMPDEST SWAP2 POP PUSH2 0x4DA DUP4 PUSH2 0x338 JUMP JUMPDEST SWAP3 POP DUP3 PUSH2 0x4EA JUMPI PUSH2 0x4E9 PUSH2 0x495 JUMP JUMPDEST JUMPDEST DUP3 DUP3 DIV SWAP1 POP SWAP3 SWAP2 POP POP JUMP JUMPDEST PUSH1 0x0 PUSH10 0xFFFFFFFFFFFFFFFFFFFF DUP3 AND SWAP1 POP SWAP2 SWAP1 POP JUMP JUMPDEST PUSH2 0x514 DUP2 PUSH2 0x4F5 JUMP JUMPDEST DUP2 EQ PUSH2 0x51F JUMPI PUSH1 0x0 DUP1 REVERT JUMPDEST POP JUMP JUMPDEST PUSH1 0x0 DUP2 MLOAD SWAP1 POP PUSH2 0x531 DUP2 PUSH2 0x50B JUMP JUMPDEST SWAP3 SWAP2 POP POP JUMP JUMPDEST PUSH1 0x0 DUP2 SWAP1 POP SWAP2 SWAP1 POP JUMP JUMPDEST PUSH2 0x54A DUP2 PUSH2 0x537 JUMP JUMPDEST DUP2 EQ PUSH2 0x555 JUMPI PUSH1 0x0 DUP1 REVERT JUMPDEST POP JUMP JUMPDEST PUSH1 0x0 DUP2 MLOAD SWAP1 POP PUSH2 0x567 DUP2 PUSH2 0x541 JUMP JUMPDEST SWAP3 SWAP2 POP POP JUMP JUMPDEST PUSH1 0x0 DUP1 PUSH1 0x0 DUP1 PUSH1 0x0 PUSH1 0xA0 DUP7 DUP9 SUB SLT ISZERO PUSH2 0x589 JUMPI PUSH2 0x588 PUSH2 0x36C JUMP JUMPDEST JUMPDEST PUSH1 0x0 PUSH2 0x597 DUP9 DUP3 DUP10 ADD PUSH2 0x522 JUMP JUMPDEST SWAP6 POP POP PUSH1 0x20 PUSH2 0x5A8 DUP9 DUP3 DUP10 ADD PUSH2 0x558 JUMP JUMPDEST SWAP5 POP POP PUSH1 0x40 PUSH2 0x5B9 DUP9 DUP3 DUP10 ADD PUSH2 0x3CA JUMP JUMPDEST SWAP4 POP POP PUSH1 0x60 PUSH2 0x5CA DUP9 DUP3 DUP10 ADD PUSH2 0x3CA JUMP JUMPDEST SWAP3 POP POP PUSH1 0x80 PUSH2 0x5DB DUP9 DUP3 DUP10 ADD PUSH2 0x522 JUMP JUMPDEST SWAP2 POP POP SWAP3 SWAP6 POP SWAP3 SWAP6 SWAP1 SWAP4 POP JUMP JUMPDEST PUSH1 0x0 PUSH2 0x5F3 DUP3 PUSH2 0x537 JUMP JUMPDEST SWAP2 POP PUSH2 0x5FE DUP4 PUSH2 0x537 JUMP JUMPDEST SWAP3 POP DUP3 PUSH32 0x7FFFFFFFFFFFFFFFFFFFFFFFFFFFFFFFFFFFFFFFFFFFFFFFFFFFFFFFFFFFFFFF DIV DUP3 GT PUSH1 0x0 DUP5 SGT PUSH1 0x0 DUP5 SGT AND AND ISZERO PUSH2 0x63D JUMPI PUSH2 0x63C PUSH2 0x40C JUMP JUMPDEST JUMPDEST DUP2 PUSH32 0x8000000000000000000000000000000000000000000000000000000000000000 SDIV DUP4 SLT PUSH1 0x0 DUP5 SLT PUSH1 0x0 DUP5 SGT AND AND ISZERO PUSH2 0x67A JUMPI PUSH2 0x679 PUSH2 0x40C JUMP JUMPDEST JUMPDEST DUP3 PUSH32 0x8000000000000000000000000000000000000000000000000000000000000000 SDIV DUP3 SLT PUSH1 0x0 DUP5 SGT PUSH1 0x0 DUP5 SLT AND AND ISZERO PUSH2 0x6B7 JUMPI PUSH2 0x6B6 PUSH2 0x40C JUMP JUMPDEST JUMPDEST DUP3 PUSH32 0x7FFFFFFFFFFFFFFFFFFFFFFFFFFFFFFFFFFFFFFFFFFFFFFFFFFFFFFFFFFFFFFF SDIV DUP3 SLT PUSH1 0x0 DUP5 SLT PUSH1 0x0 DUP5 SLT AND AND ISZERO PUSH2 0x6F4 JUMPI PUSH2 0x6F3 PUSH2 0x40C JUMP JUMPDEST JUMPDEST DUP3 DUP3 MUL SWAP1 POP SWAP3 SWAP2 POP POP JUMP JUMPDEST PUSH1 0x0 DUP3 DUP3 MSTORE PUSH1 0x20 DUP3 ADD SWAP1 POP SWAP3 SWAP2 POP POP JUMP JUMPDEST PUSH32 0x4469646E742073656E6420656E6F756768000000000000000000000000000000 PUSH1 0x0 DUP3 ADD MSTORE POP JUMP JUMPDEST PUSH1 0x0 PUSH2 0x746 PUSH1 0x11 DUP4 PUSH2 0x6FF JUMP JUMPDEST SWAP2 POP PUSH2 0x751 DUP3 PUSH2 0x710 JUMP JUMPDEST PUSH1 0x20 DUP3 ADD SWAP1 POP SWAP2 SWAP1 POP JUMP JUMPDEST PUSH1 0x0 PUSH1 0x20 DUP3 ADD SWAP1 POP DUP2 DUP2 SUB PUSH1 0x0 DUP4 ADD MSTORE PUSH2 0x775 DUP2 PUSH2 0x739 JUMP JUMPDEST SWAP1 POP SWAP2 SWAP1 POP JUMP INVALID LOG2 PUSH5 0x6970667358 0x22 SLT KECCAK256 DUP11 PUSH11 0xA1973436ECCBEF5E1D2309 PUSH28 0xCD51C35D25965DDA6AB29BE2609236FA915964736F6C634300080800 CALLER "
				},
				"gasEstimates": {
					"creation": {
						"codeDepositCost": "394000",
						"executionCost": "22536",
						"totalCost": "416536"
					},
					"external": {
						"fund()": "infinite",
						"getConversionRate(uint256)": "infinite",
						"getPrice()": "infinite",
						"getVersion()": "infinite",
						"minimumUsd()": "2407",
						"number()": "2473"
					}
				},
				"methodIdentifiers": {
					"fund()": "b60d4288",
					"getConversionRate(uint256)": "6e5b6b28",
					"getPrice()": "98d5fdca",
					"getVersion()": "0d8e6e2c",
					"minimumUsd()": "098de820",
					"number()": "8381f58a"
				}
			},
			"storageLayout": {
				"storage": [
					{
						"astId": 50,
						"contract": "contracts/Lesson 4/FundeMe.sol:FundMe",
						"label": "number",
						"offset": 0,
						"slot": "0",
						"type": "t_uint256"
					},
					{
						"astId": 55,
						"contract": "contracts/Lesson 4/FundeMe.sol:FundMe",
						"label": "minimumUsd",
						"offset": 0,
						"slot": "1",
						"type": "t_uint256"
					}
				],
				"types": {
					"t_uint256": {
						"encoding": "inplace",
						"label": "uint256",
						"numberOfBytes": "32"
					}
				}
			},
			"userdoc": {
				"kind": "user",
				"methods": {},
				"version": 1
			}
		}
	}
}